{
  "contractName": "Voting",
  "abi": [
    {
      "anonymous": false,
      "inputs": [
        {
          "indexed": true,
          "internalType": "address",
          "name": "previousOwner",
          "type": "address"
        },
        {
          "indexed": true,
          "internalType": "address",
          "name": "newOwner",
          "type": "address"
        }
      ],
      "name": "OwnershipTransferred",
      "type": "event"
    },
    {
      "anonymous": false,
      "inputs": [
        {
          "indexed": false,
          "internalType": "uint256",
          "name": "proposalId",
          "type": "uint256"
        }
      ],
      "name": "ProposalRegistered",
      "type": "event"
    },
    {
      "anonymous": false,
      "inputs": [],
      "name": "ProposalsRegistrationEnded",
      "type": "event"
    },
    {
      "anonymous": false,
      "inputs": [],
      "name": "ProposalsRegistrationStarted",
      "type": "event"
    },
    {
      "anonymous": false,
      "inputs": [
        {
          "indexed": false,
          "internalType": "address",
          "name": "voter",
          "type": "address"
        },
        {
          "indexed": false,
          "internalType": "uint256",
          "name": "proposalId",
          "type": "uint256"
        }
      ],
      "name": "Voted",
      "type": "event"
    },
    {
      "anonymous": false,
      "inputs": [
        {
          "indexed": false,
          "internalType": "address",
          "name": "voterAddress",
          "type": "address"
        }
      ],
      "name": "VoterRegistered",
      "type": "event"
    },
    {
      "anonymous": false,
      "inputs": [],
      "name": "VotesTallied",
      "type": "event"
    },
    {
      "anonymous": false,
      "inputs": [],
      "name": "VotingSessionEnded",
      "type": "event"
    },
    {
      "anonymous": false,
      "inputs": [],
      "name": "VotingSessionStarted",
      "type": "event"
    },
    {
      "anonymous": false,
      "inputs": [
        {
          "indexed": false,
          "internalType": "enum Voting.WorkflowStatus",
          "name": "previousStatus",
          "type": "uint8"
        },
        {
          "indexed": false,
          "internalType": "enum Voting.WorkflowStatus",
          "name": "newStatus",
          "type": "uint8"
        }
      ],
      "name": "WorkflowStatusChange",
      "type": "event"
    },
    {
      "inputs": [],
      "name": "owner",
      "outputs": [
        {
          "internalType": "address",
          "name": "",
          "type": "address"
        }
      ],
      "stateMutability": "view",
      "type": "function",
      "constant": true
    },
    {
      "inputs": [
        {
          "internalType": "string",
          "name": "",
          "type": "string"
        }
      ],
      "name": "proposals",
      "outputs": [
        {
          "internalType": "string",
          "name": "description",
          "type": "string"
        },
        {
          "internalType": "uint256",
          "name": "voteCount",
          "type": "uint256"
        }
      ],
      "stateMutability": "view",
      "type": "function",
      "constant": true
    },
    {
      "inputs": [],
      "name": "renounceOwnership",
      "outputs": [],
      "stateMutability": "nonpayable",
      "type": "function"
    },
    {
      "inputs": [
        {
          "internalType": "address",
          "name": "newOwner",
          "type": "address"
        }
      ],
      "name": "transferOwnership",
      "outputs": [],
      "stateMutability": "nonpayable",
      "type": "function"
    },
    {
      "inputs": [],
      "name": "getStatus",
      "outputs": [
        {
          "internalType": "enum Voting.WorkflowStatus",
          "name": "",
          "type": "uint8"
        }
      ],
      "stateMutability": "view",
      "type": "function",
      "constant": true
    },
    {
      "inputs": [
        {
          "internalType": "address",
          "name": "_voter",
          "type": "address"
        }
      ],
      "name": "voterRegister",
      "outputs": [],
      "stateMutability": "nonpayable",
      "type": "function"
    },
    {
      "inputs": [
        {
          "internalType": "address",
          "name": "_address",
          "type": "address"
        }
      ],
      "name": "isRegistered",
      "outputs": [
        {
          "internalType": "bool",
          "name": "",
          "type": "bool"
        }
      ],
      "stateMutability": "view",
      "type": "function",
      "constant": true
    },
    {
      "inputs": [],
      "name": "proposalsRegistrationStart",
      "outputs": [],
      "stateMutability": "nonpayable",
      "type": "function"
    },
    {
      "inputs": [
        {
          "internalType": "string",
          "name": "_description",
          "type": "string"
        }
      ],
      "name": "proposalRegister",
      "outputs": [],
      "stateMutability": "nonpayable",
      "type": "function"
    },
    {
      "inputs": [],
      "name": "proposalsRegistrationEnd",
      "outputs": [],
      "stateMutability": "nonpayable",
      "type": "function"
    },
    {
      "inputs": [],
      "name": "getAllDescription",
      "outputs": [
        {
          "internalType": "string[]",
          "name": "",
          "type": "string[]"
        }
      ],
      "stateMutability": "view",
      "type": "function",
      "constant": true
    },
    {
      "inputs": [],
      "name": "votingSessionStart",
      "outputs": [],
      "stateMutability": "nonpayable",
      "type": "function"
    },
    {
      "inputs": [
        {
          "internalType": "uint256",
          "name": "_proposalId",
          "type": "uint256"
        }
      ],
      "name": "vote",
      "outputs": [],
      "stateMutability": "nonpayable",
      "type": "function"
    },
    {
      "inputs": [
        {
          "internalType": "address",
          "name": "_address",
          "type": "address"
        }
      ],
      "name": "whoDidYouVoteFor",
      "outputs": [
        {
          "internalType": "uint256",
          "name": "",
          "type": "uint256"
        }
      ],
      "stateMutability": "view",
      "type": "function",
      "constant": true
    },
    {
      "inputs": [],
      "name": "votingSessionEnd",
      "outputs": [],
      "stateMutability": "nonpayable",
      "type": "function"
    },
    {
      "inputs": [],
      "name": "defineWinner",
      "outputs": [
        {
          "internalType": "uint256",
          "name": "",
          "type": "uint256"
        }
      ],
      "stateMutability": "nonpayable",
      "type": "function"
    },
    {
      "inputs": [],
      "name": "getWinner",
      "outputs": [
        {
          "internalType": "string",
          "name": "",
          "type": "string"
        }
      ],
      "stateMutability": "view",
      "type": "function",
      "constant": true
    }
  ],
  "bytecode": "0x60806040523480156200001157600080fd5b5062000032620000266200003860201b60201c565b6200004060201b60201c565b62000104565b600033905090565b60008060009054906101000a900473ffffffffffffffffffffffffffffffffffffffff169050816000806101000a81548173ffffffffffffffffffffffffffffffffffffffff021916908373ffffffffffffffffffffffffffffffffffffffff1602179055508173ffffffffffffffffffffffffffffffffffffffff168173ffffffffffffffffffffffffffffffffffffffff167f8be0079c531659141344cd1fd0a4f28419497f9722a3daafe3b4186f6b6457e060405160405180910390a35050565b612b3880620001146000396000f3fe608060405234801561001057600080fd5b506004361061010b5760003560e01c8063af154087116100a2578063c6b6fad211610071578063c6b6fad214610246578063cba1b31114610264578063ec7fec8b1461026e578063f2fde38b1461028c578063ffa0d2a4146102a85761010b565b8063af154087146101d4578063b20cd9d0146101f0578063c143bb2d146101fa578063c3c5a547146102165761010b565b80638da5cb5b116100de5780638da5cb5b1461015e5780638e7ea5b21461017c5780639ead29c51461019a578063aa64547c146101ca5761010b565b80630121b93f146101105780632bf08b0b1461012c5780634e69d56014610136578063715018a614610154575b600080fd5b61012a60048036038101906101259190611ff8565b6102d9565b005b610134610672565b005b61013e6107ea565b60405161014b919061259d565b60405180910390f35b61015c610801565b005b610166610889565b604051610173919061251c565b60405180910390f35b6101846108b2565b60405161019191906125e1565b60405180910390f35b6101b460048036038101906101af9190611f8e565b610a6c565b6040516101c19190612793565b60405180910390f35b6101d2610ca8565b005b6101ee60048036038101906101e99190611f8e565b610e20565b005b6101f861108b565b005b610214600480360381019061020f9190611fb7565b611203565b005b610230600480360381019061022b9190611f8e565b61144b565b60405161023d9190612582565b60405180910390f35b61024e6114a4565b60405161025b9190612560565b60405180910390f35b61026c61163f565b005b6102766117fc565b6040516102839190612793565b60405180910390f35b6102a660048036038101906102a19190611f8e565b611abc565b005b6102c260048036038101906102bd9190611fb7565b611bb4565b6040516102d0929190612603565b60405180910390f35b6003806005811115610314577f4e487b7100000000000000000000000000000000000000000000000000000000600052602160045260246000fd5b600660009054906101000a900460ff16600581111561035c577f4e487b7100000000000000000000000000000000000000000000000000000000600052602160045260246000fd5b1461039c576040517f08c379a000000000000000000000000000000000000000000000000000000000815260040161039390612713565b60405180910390fd5b60011515600360003373ffffffffffffffffffffffffffffffffffffffff1673ffffffffffffffffffffffffffffffffffffffff16815260200190815260200160002060000160009054906101000a900460ff16151514610432576040517f08c379a0000000000000000000000000000000000000000000000000000000008152600401610429906126d3565b60405180910390fd5b60001515600360003373ffffffffffffffffffffffffffffffffffffffff1673ffffffffffffffffffffffffffffffffffffffff16815260200190815260200160002060000160019054906101000a900460ff161515146104c8576040517f08c379a00000000000000000000000000000000000000000000000000000000081526004016104bf90612753565b60405180910390fd5b60016002546104d79190612895565b821115610519576040517f08c379a000000000000000000000000000000000000000000000000000000000815260040161051090612733565b60405180910390fd5b6001600360003373ffffffffffffffffffffffffffffffffffffffff1673ffffffffffffffffffffffffffffffffffffffff16815260200190815260200160002060000160016101000a81548160ff02191690831515021790555081600360003373ffffffffffffffffffffffffffffffffffffffff1673ffffffffffffffffffffffffffffffffffffffff168152602001908152602001600020600101819055506005600483815481106105f7577f4e487b7100000000000000000000000000000000000000000000000000000000600052603260045260246000fd5b9060005260206000200160405161060e9190612505565b90815260200160405180910390206001016000815480929190610630906129aa565b91905055507f4d99b957a2bc29a30ebd96a7be8e68fe50a3c701db28a91436490b7d53870ca43383604051610666929190612537565b60405180910390a15050565b61067a611c76565b73ffffffffffffffffffffffffffffffffffffffff16610698610889565b73ffffffffffffffffffffffffffffffffffffffff16146106ee576040517f08c379a00000000000000000000000000000000000000000000000000000000081526004016106e5906126f3565b60405180910390fd5b6003806005811115610729577f4e487b7100000000000000000000000000000000000000000000000000000000600052602160045260246000fd5b600660009054906101000a900460ff166005811115610771577f4e487b7100000000000000000000000000000000000000000000000000000000600052602160045260246000fd5b146107b1576040517f08c379a00000000000000000000000000000000000000000000000000000000081526004016107a890612713565b60405180910390fd5b6107bb6004611c7e565b7fc379d349a6301baf50fb2f98d829f4ae10b1cdb7c66f4e4d8117302df7b8cd4c60405160405180910390a150565b6000600660009054906101000a900460ff16905090565b610809611c76565b73ffffffffffffffffffffffffffffffffffffffff16610827610889565b73ffffffffffffffffffffffffffffffffffffffff161461087d576040517f08c379a0000000000000000000000000000000000000000000000000000000008152600401610874906126f3565b60405180910390fd5b6108876000611d95565b565b60008060009054906101000a900473ffffffffffffffffffffffffffffffffffffffff16905090565b606060058060058111156108ef577f4e487b7100000000000000000000000000000000000000000000000000000000600052602160045260246000fd5b600660009054906101000a900460ff166005811115610937577f4e487b7100000000000000000000000000000000000000000000000000000000600052602160045260246000fd5b14610977576040517f08c379a000000000000000000000000000000000000000000000000000000000815260040161096e90612713565b60405180910390fd5b60056004600154815481106109b5577f4e487b7100000000000000000000000000000000000000000000000000000000600052603260045260246000fd5b906000526020600020016040516109cc9190612505565b908152602001604051809103902060000180546109e890612978565b80601f0160208091040260200160405190810160405280929190818152602001828054610a1490612978565b8015610a615780601f10610a3657610100808354040283529160200191610a61565b820191906000526020600020905b815481529060010190602001808311610a4457829003601f168201915b505050505091505090565b60006003806005811115610aa9577f4e487b7100000000000000000000000000000000000000000000000000000000600052602160045260246000fd5b600660009054906101000a900460ff166005811115610af1577f4e487b7100000000000000000000000000000000000000000000000000000000600052602160045260246000fd5b14610b31576040517f08c379a0000000000000000000000000000000000000000000000000000000008152600401610b2890612713565b60405180910390fd5b60011515600360008573ffffffffffffffffffffffffffffffffffffffff1673ffffffffffffffffffffffffffffffffffffffff16815260200190815260200160002060000160009054906101000a900460ff16151514610bc7576040517f08c379a0000000000000000000000000000000000000000000000000000000008152600401610bbe90612653565b60405180910390fd5b60011515600360008573ffffffffffffffffffffffffffffffffffffffff1673ffffffffffffffffffffffffffffffffffffffff16815260200190815260200160002060000160019054906101000a900460ff16151514610c5d576040517f08c379a0000000000000000000000000000000000000000000000000000000008152600401610c5490612773565b60405180910390fd5b600360008473ffffffffffffffffffffffffffffffffffffffff1673ffffffffffffffffffffffffffffffffffffffff16815260200190815260200160002060010154915050919050565b610cb0611c76565b73ffffffffffffffffffffffffffffffffffffffff16610cce610889565b73ffffffffffffffffffffffffffffffffffffffff1614610d24576040517f08c379a0000000000000000000000000000000000000000000000000000000008152600401610d1b906126f3565b60405180910390fd5b6000806005811115610d5f577f4e487b7100000000000000000000000000000000000000000000000000000000600052602160045260246000fd5b600660009054906101000a900460ff166005811115610da7577f4e487b7100000000000000000000000000000000000000000000000000000000600052602160045260246000fd5b14610de7576040517f08c379a0000000000000000000000000000000000000000000000000000000008152600401610dde90612713565b60405180910390fd5b610df16001611c7e565b7f344c25562921d075a298d34b6dd1fd00d36ff293974539dfd4a8c625d9f0064c60405160405180910390a150565b610e28611c76565b73ffffffffffffffffffffffffffffffffffffffff16610e46610889565b73ffffffffffffffffffffffffffffffffffffffff1614610e9c576040517f08c379a0000000000000000000000000000000000000000000000000000000008152600401610e93906126f3565b60405180910390fd5b6000806005811115610ed7577f4e487b7100000000000000000000000000000000000000000000000000000000600052602160045260246000fd5b600660009054906101000a900460ff166005811115610f1f577f4e487b7100000000000000000000000000000000000000000000000000000000600052602160045260246000fd5b14610f5f576040517f08c379a0000000000000000000000000000000000000000000000000000000008152600401610f5690612713565b60405180910390fd5b60001515600360008473ffffffffffffffffffffffffffffffffffffffff1673ffffffffffffffffffffffffffffffffffffffff16815260200190815260200160002060000160009054906101000a900460ff16151514610ff5576040517f08c379a0000000000000000000000000000000000000000000000000000000008152600401610fec906126b3565b60405180910390fd5b6001600360008473ffffffffffffffffffffffffffffffffffffffff1673ffffffffffffffffffffffffffffffffffffffff16815260200190815260200160002060000160006101000a81548160ff0219169083151502179055507fb6be2187d059cc2a55fe29e0e503b566e1e0f8c8780096e185429350acffd3dd8260405161107f919061251c565b60405180910390a15050565b611093611c76565b73ffffffffffffffffffffffffffffffffffffffff166110b1610889565b73ffffffffffffffffffffffffffffffffffffffff1614611107576040517f08c379a00000000000000000000000000000000000000000000000000000000081526004016110fe906126f3565b60405180910390fd5b6002806005811115611142577f4e487b7100000000000000000000000000000000000000000000000000000000600052602160045260246000fd5b600660009054906101000a900460ff16600581111561118a577f4e487b7100000000000000000000000000000000000000000000000000000000600052602160045260246000fd5b146111ca576040517f08c379a00000000000000000000000000000000000000000000000000000000081526004016111c190612713565b60405180910390fd5b6111d46003611c7e565b7f1b8e19a458c1bcd88553332c518cc5c4e2d5793e712ee766d4f1c14f672ef1f560405160405180910390a150565b600180600581111561123e577f4e487b7100000000000000000000000000000000000000000000000000000000600052602160045260246000fd5b600660009054906101000a900460ff166005811115611286577f4e487b7100000000000000000000000000000000000000000000000000000000600052602160045260246000fd5b146112c6576040517f08c379a00000000000000000000000000000000000000000000000000000000081526004016112bd90612713565b60405180910390fd5b60011515600360003373ffffffffffffffffffffffffffffffffffffffff1673ffffffffffffffffffffffffffffffffffffffff16815260200190815260200160002060000160009054906101000a900460ff1615151461135c576040517f08c379a0000000000000000000000000000000000000000000000000000000008152600401611353906126d3565b60405180910390fd5b600482908060018154018082558091505060019003906000526020600020016000909190919091509080519060200190611397929190611e59565b50600260008154809291906113ab906129aa565b9190505550604051806040016040528083815260200160008152506005836040516113d691906124ee565b90815260200160405180910390206000820151816000019080519060200190611400929190611e59565b50602082015181600101559050507f92e393e9b54e2f801d3ea4beb0c5e71a21cc34a5d34b77d0fb8a3aa1650dc18f60025460405161143f9190612793565b60405180910390a15050565b6000600360008373ffffffffffffffffffffffffffffffffffffffff1673ffffffffffffffffffffffffffffffffffffffff16815260200190815260200160002060000160009054906101000a900460ff169050919050565b6060600160058111156114e0577f4e487b7100000000000000000000000000000000000000000000000000000000600052602160045260246000fd5b600660009054906101000a900460ff166005811115611528577f4e487b7100000000000000000000000000000000000000000000000000000000600052602160045260246000fd5b11611568576040517f08c379a000000000000000000000000000000000000000000000000000000000815260040161155f90612713565b60405180910390fd5b6004805480602002602001604051908101604052809291908181526020016000905b828210156116365783829060005260206000200180546115a990612978565b80601f01602080910402602001604051908101604052809291908181526020018280546115d590612978565b80156116225780601f106115f757610100808354040283529160200191611622565b820191906000526020600020905b81548152906001019060200180831161160557829003601f168201915b50505050508152602001906001019061158a565b50505050905090565b611647611c76565b73ffffffffffffffffffffffffffffffffffffffff16611665610889565b73ffffffffffffffffffffffffffffffffffffffff16146116bb576040517f08c379a00000000000000000000000000000000000000000000000000000000081526004016116b2906126f3565b60405180910390fd5b60018060058111156116f6577f4e487b7100000000000000000000000000000000000000000000000000000000600052602160045260246000fd5b600660009054906101000a900460ff16600581111561173e577f4e487b7100000000000000000000000000000000000000000000000000000000600052602160045260246000fd5b1461177e576040517f08c379a000000000000000000000000000000000000000000000000000000000815260040161177590612713565b60405180910390fd5b6001600254116117c3576040517f08c379a00000000000000000000000000000000000000000000000000000000081526004016117ba90612693565b60405180910390fd5b6117cd6002611c7e565b7f240cb87b2e4df4c318e72bd714d45a9cad60249e883ff56b1fffd83a4595a8fa60405160405180910390a150565b6000611806611c76565b73ffffffffffffffffffffffffffffffffffffffff16611824610889565b73ffffffffffffffffffffffffffffffffffffffff161461187a576040517f08c379a0000000000000000000000000000000000000000000000000000000008152600401611871906126f3565b60405180910390fd5b60048060058111156118b5577f4e487b7100000000000000000000000000000000000000000000000000000000600052602160045260246000fd5b600660009054906101000a900460ff1660058111156118fd577f4e487b7100000000000000000000000000000000000000000000000000000000600052602160045260246000fd5b1461193d576040517f08c379a000000000000000000000000000000000000000000000000000000000815260040161193490612713565b60405180910390fd5b600060025411611982576040517f08c379a000000000000000000000000000000000000000000000000000000000815260040161197990612673565b60405180910390fd5b60005b600254811015611a7c576005600482815481106119cb577f4e487b7100000000000000000000000000000000000000000000000000000000600052603260045260246000fd5b906000526020600020016040516119e29190612505565b9081526020016040518091039020600101546005600460015481548110611a32577f4e487b7100000000000000000000000000000000000000000000000000000000600052603260045260246000fd5b90600052602060002001604051611a499190612505565b9081526020016040518091039020600101541015611a6957806001819055505b8080611a74906129aa565b915050611985565b50611a876005611c7e565b7f0e5e95ff8725ab3e7a4b6b59998a4c344c2aa8d1485f5e60cb7f337768e6134760405160405180910390a160015491505090565b611ac4611c76565b73ffffffffffffffffffffffffffffffffffffffff16611ae2610889565b73ffffffffffffffffffffffffffffffffffffffff1614611b38576040517f08c379a0000000000000000000000000000000000000000000000000000000008152600401611b2f906126f3565b60405180910390fd5b600073ffffffffffffffffffffffffffffffffffffffff168173ffffffffffffffffffffffffffffffffffffffff161415611ba8576040517f08c379a0000000000000000000000000000000000000000000000000000000008152600401611b9f90612633565b60405180910390fd5b611bb181611d95565b50565b600581805160208101820180518482526020830160208501208183528095505050505050600091509050806000018054611bed90612978565b80601f0160208091040260200160405190810160405280929190818152602001828054611c1990612978565b8015611c665780601f10611c3b57610100808354040283529160200191611c66565b820191906000526020600020905b815481529060010190602001808311611c4957829003601f168201915b5050505050908060010154905082565b600033905090565b611c86611c76565b73ffffffffffffffffffffffffffffffffffffffff16611ca4610889565b73ffffffffffffffffffffffffffffffffffffffff1614611cfa576040517f08c379a0000000000000000000000000000000000000000000000000000000008152600401611cf1906126f3565b60405180910390fd5b80600660006101000a81548160ff02191690836005811115611d45577f4e487b7100000000000000000000000000000000000000000000000000000000600052602160045260246000fd5b02179055507f0a97a4ee45751e2abf3e4fc8946939630b11b371ea8ae39ccdc3056e98f5cc3f600660009054906101000a900460ff1682604051611d8a9291906125b8565b60405180910390a150565b60008060009054906101000a900473ffffffffffffffffffffffffffffffffffffffff169050816000806101000a81548173ffffffffffffffffffffffffffffffffffffffff021916908373ffffffffffffffffffffffffffffffffffffffff1602179055508173ffffffffffffffffffffffffffffffffffffffff168173ffffffffffffffffffffffffffffffffffffffff167f8be0079c531659141344cd1fd0a4f28419497f9722a3daafe3b4186f6b6457e060405160405180910390a35050565b828054611e6590612978565b90600052602060002090601f016020900481019282611e875760008555611ece565b82601f10611ea057805160ff1916838001178555611ece565b82800160010185558215611ece579182015b82811115611ecd578251825591602001919060010190611eb2565b5b509050611edb9190611edf565b5090565b5b80821115611ef8576000816000905550600101611ee0565b5090565b6000611f0f611f0a846127df565b6127ae565b905082815260208101848484011115611f2757600080fd5b611f32848285612936565b509392505050565b600081359050611f4981612ad4565b92915050565b600082601f830112611f6057600080fd5b8135611f70848260208601611efc565b91505092915050565b600081359050611f8881612aeb565b92915050565b600060208284031215611fa057600080fd5b6000611fae84828501611f3a565b91505092915050565b600060208284031215611fc957600080fd5b600082013567ffffffffffffffff811115611fe357600080fd5b611fef84828501611f4f565b91505092915050565b60006020828403121561200a57600080fd5b600061201884828501611f79565b91505092915050565b600061202d83836120d7565b905092915050565b61203e816128c9565b82525050565b600061204f82612834565b6120598185612857565b93508360208202850161206b8561280f565b8060005b858110156120a757848403895281516120888582612021565b94506120938361284a565b925060208a0199505060018101905061206f565b50829750879550505050505092915050565b6120c2816128db565b82525050565b6120d181612924565b82525050565b60006120e28261283f565b6120ec8185612868565b93506120fc818560208601612945565b61210581612aaf565b840191505092915050565b600061211b8261283f565b6121258185612879565b9350612135818560208601612945565b61213e81612aaf565b840191505092915050565b60006121548261283f565b61215e818561288a565b935061216e818560208601612945565b80840191505092915050565b6000815461218781612978565b612191818661288a565b945060018216600081146121ac57600181146121bd576121f0565b60ff198316865281860193506121f0565b6121c68561281f565b60005b838110156121e8578154818901526001820191506020810190506121c9565b838801955050505b50505092915050565b6000612206602683612879565b91507f4f776e61626c653a206e6577206f776e657220697320746865207a65726f206160008301527f64647265737300000000000000000000000000000000000000000000000000006020830152604082019050919050565b600061226c600e83612879565b91507f4e6f7420526567697374657265640000000000000000000000000000000000006000830152602082019050919050565b60006122ac601283612879565b91507f4572726f722c206e6f2070726f706f73616c00000000000000000000000000006000830152602082019050919050565b60006122ec601683612879565b91507f5765206e656564206d6f72652070726f706f73616c73000000000000000000006000830152602082019050919050565b600061232c601283612879565b91507f416c7265616479205265676973746572656400000000000000000000000000006000830152602082019050919050565b600061236c601483612879565b91507f566f746572206e6f7420526567697374657265640000000000000000000000006000830152602082019050919050565b60006123ac602083612879565b91507f4f776e61626c653a2063616c6c6572206973206e6f7420746865206f776e65726000830152602082019050919050565b60006123ec600c83612879565b91507f496e76616c6964205374657000000000000000000000000000000000000000006000830152602082019050919050565b600061242c601083612879565b91507f496e76616c69642070726f706f73616c000000000000000000000000000000006000830152602082019050919050565b600061246c601283612879565b91507f566f746520616c72656164792074616b656e00000000000000000000000000006000830152602082019050919050565b60006124ac600c83612879565b91507f446964204e6f7420566f746500000000000000000000000000000000000000006000830152602082019050919050565b6124e88161291a565b82525050565b60006124fa8284612149565b915081905092915050565b6000612511828461217a565b915081905092915050565b60006020820190506125316000830184612035565b92915050565b600060408201905061254c6000830185612035565b61255960208301846124df565b9392505050565b6000602082019050818103600083015261257a8184612044565b905092915050565b600060208201905061259760008301846120b9565b92915050565b60006020820190506125b260008301846120c8565b92915050565b60006040820190506125cd60008301856120c8565b6125da60208301846120c8565b9392505050565b600060208201905081810360008301526125fb8184612110565b905092915050565b6000604082019050818103600083015261261d8185612110565b905061262c60208301846124df565b9392505050565b6000602082019050818103600083015261264c816121f9565b9050919050565b6000602082019050818103600083015261266c8161225f565b9050919050565b6000602082019050818103600083015261268c8161229f565b9050919050565b600060208201905081810360008301526126ac816122df565b9050919050565b600060208201905081810360008301526126cc8161231f565b9050919050565b600060208201905081810360008301526126ec8161235f565b9050919050565b6000602082019050818103600083015261270c8161239f565b9050919050565b6000602082019050818103600083015261272c816123df565b9050919050565b6000602082019050818103600083015261274c8161241f565b9050919050565b6000602082019050818103600083015261276c8161245f565b9050919050565b6000602082019050818103600083015261278c8161249f565b9050919050565b60006020820190506127a860008301846124df565b92915050565b6000604051905081810181811067ffffffffffffffff821117156127d5576127d4612a80565b5b8060405250919050565b600067ffffffffffffffff8211156127fa576127f9612a80565b5b601f19601f8301169050602081019050919050565b6000819050602082019050919050565b60008190508160005260206000209050919050565b600081519050919050565b600081519050919050565b6000602082019050919050565b600082825260208201905092915050565b600082825260208201905092915050565b600082825260208201905092915050565b600081905092915050565b60006128a08261291a565b91506128ab8361291a565b9250828210156128be576128bd6129f3565b5b828203905092915050565b60006128d4826128fa565b9050919050565b60008115159050919050565b60008190506128f582612ac0565b919050565b600073ffffffffffffffffffffffffffffffffffffffff82169050919050565b6000819050919050565b600061292f826128e7565b9050919050565b82818337600083830152505050565b60005b83811015612963578082015181840152602081019050612948565b83811115612972576000848401525b50505050565b6000600282049050600182168061299057607f821691505b602082108114156129a4576129a3612a51565b5b50919050565b60006129b58261291a565b91507fffffffffffffffffffffffffffffffffffffffffffffffffffffffffffffffff8214156129e8576129e76129f3565b5b600182019050919050565b7f4e487b7100000000000000000000000000000000000000000000000000000000600052601160045260246000fd5b7f4e487b7100000000000000000000000000000000000000000000000000000000600052602160045260246000fd5b7f4e487b7100000000000000000000000000000000000000000000000000000000600052602260045260246000fd5b7f4e487b7100000000000000000000000000000000000000000000000000000000600052604160045260246000fd5b6000601f19601f8301169050919050565b60068110612ad157612ad0612a22565b5b50565b612add816128c9565b8114612ae857600080fd5b50565b612af48161291a565b8114612aff57600080fd5b5056fea2646970667358221220a8a630fee423a8975f8823766242b1efe35014060d5ef128453400b5d246ac5b64736f6c63430008000033",
  "immutableReferences": {},
  "source": "// SPDX-License-Identifier: GPL-3.0\npragma solidity 0.8.0;\n\nimport \"./Ownable.sol\";\n\ncontract Voting is Ownable {\n    struct Voter {\n        bool isRegistered;\n        bool hasVoted;\n        uint votedProposalId;\n    }\n\n    struct Proposal {\n        string description;\n        uint voteCount;\n    }\n    \n    enum WorkflowStatus {\n        RegisteringVoters,\n        ProposalsRegistrationStarted,\n        ProposalsRegistrationEnded,\n        VotingSessionStarted,\n        VotingSessionEnded,\n        VotesTallied\n    }\n    \n    event VoterRegistered(address voterAddress);\n    event ProposalsRegistrationStarted();\n    event ProposalsRegistrationEnded();\n    event ProposalRegistered(uint proposalId);\n    event VotingSessionStarted();\n    event VotingSessionEnded();\n    event Voted (address voter, uint proposalId);\n    event VotesTallied();\n    event WorkflowStatusChange(WorkflowStatus previousStatus, WorkflowStatus newStatus);\n    \n    uint private winningProposalId;\n    uint numberProposals;\n    mapping(address => Voter) voters;\n    string[] proposalsIndex;\n    mapping(string => Proposal) public proposals;\n    WorkflowStatus private status;\n    \n    modifier checkStatus(WorkflowStatus _status) {\n        require(status == _status, \"Invalid Step\");\n        _;\n    }\n    \n    function uint2str(uint _i) internal pure returns (string memory _uintAsString) {\n        if (_i == 0) {\n            return \"0\";\n        }\n        uint j = _i;\n        uint len;\n        while (j != 0) {\n            len++;\n            j /= 10;\n        }\n        bytes memory bstr = new bytes(len);\n        uint k = len;\n        while (_i != 0) {\n            k = k-1;\n            uint8 temp = (48 + uint8(_i - _i / 10 * 10));\n            bytes1 b1 = bytes1(temp);\n            bstr[k] = b1;\n            _i /= 10;\n        }\n        return string(bstr);\n    }\n    \n    function getStatus() public view returns(WorkflowStatus) {\n        return status;\n    }\n    \n    function changeStatus(WorkflowStatus _status) internal onlyOwner {\n        status = _status;\n        emit WorkflowStatusChange(status, _status);\n    }\n    \n    function voterRegister(address _voter) public onlyOwner checkStatus(WorkflowStatus.RegisteringVoters) {\n        require(voters[_voter].isRegistered == false, \"Already Registered\");\n        voters[_voter].isRegistered = true;\n        emit VoterRegistered(_voter);\n    }\n\n    function isRegistered(address _address) public view returns (bool) {\n        return voters[_address].isRegistered;\n    }\n    \n    function proposalsRegistrationStart() public onlyOwner checkStatus(WorkflowStatus.RegisteringVoters) {\n        changeStatus(WorkflowStatus.ProposalsRegistrationStarted);\n        emit ProposalsRegistrationStarted();\n    }\n    \n    function proposalRegister(string memory _description) public checkStatus(WorkflowStatus.ProposalsRegistrationStarted) {\n        require(voters[msg.sender].isRegistered == true, \"Voter not Registered\");\n        //proposals.push(Proposal(_description, 0));\n        proposalsIndex.push(_description);\n        numberProposals++;\n        proposals[_description] = Proposal(_description, 0);\n        emit ProposalRegistered(numberProposals);\n    }\n    \n    function proposalsRegistrationEnd() public onlyOwner checkStatus(WorkflowStatus.ProposalsRegistrationStarted) {\n        require(numberProposals > 1, \"We need more proposals\");\n        changeStatus(WorkflowStatus.ProposalsRegistrationEnded);\n        emit ProposalsRegistrationEnded();\n    }\n    \n    function getAllDescription() public view returns(string[] memory) {\n        require(status > WorkflowStatus.ProposalsRegistrationStarted, \"Invalid Step\");\n        return proposalsIndex;\n    }\n    \n    function votingSessionStart() public onlyOwner checkStatus(WorkflowStatus.ProposalsRegistrationEnded) {\n        changeStatus(WorkflowStatus.VotingSessionStarted);\n        emit VotingSessionStarted();\n    }\n    \n    function vote(uint _proposalId) public checkStatus(WorkflowStatus.VotingSessionStarted) {\n        require(voters[msg.sender].isRegistered == true, \"Voter not Registered\");\n        require(voters[msg.sender].hasVoted == false, \"Vote already taken\");\n        require(_proposalId <= numberProposals - 1, \"Invalid proposal\");\n        voters[msg.sender].hasVoted = true;\n        voters[msg.sender].votedProposalId = _proposalId;\n        proposals[proposalsIndex[_proposalId]].voteCount++;\n        emit Voted(msg.sender, _proposalId);\n    }\n\n    function whoDidYouVoteFor(address _address) public view checkStatus(WorkflowStatus.VotingSessionStarted) returns(uint) {\n        require(voters[_address].isRegistered == true, \"Not Registered\");\n        require(voters[_address].hasVoted == true, \"Did Not Vote\");\n        return voters[_address].votedProposalId;\n    }\n    \n    function votingSessionEnd() public onlyOwner checkStatus(WorkflowStatus.VotingSessionStarted) {\n        changeStatus(WorkflowStatus.VotingSessionEnded);\n        emit VotingSessionEnded();\n    }\n    \n    /*\n    *   @notice: Counts all the votes and defines the winning proposal\n    *   @return The winning ID proposal\n    */\n    function defineWinner() public onlyOwner checkStatus(WorkflowStatus.VotingSessionEnded) returns(uint) {\n        require(numberProposals > 0, \"Error, no proposal\");\n        for (uint i = 0; i < numberProposals; i++) {\n            if ( proposals[proposalsIndex[winningProposalId]].voteCount < proposals[proposalsIndex[i]].voteCount)\n                winningProposalId = i;\n        }\n        changeStatus(WorkflowStatus.VotesTallied);\n        emit VotesTallied();\n        return winningProposalId;\n    }\n\n    function getWinner() public view checkStatus(WorkflowStatus.VotesTallied) returns(string memory) {\n        return string(proposals[proposalsIndex[winningProposalId]].description);\n    }\n}",
  "sourcePath": "/home/keymon/Work/dApp/voting/contracts/Voting.sol",
  "compiler": {
    "name": "solc",
    "version": "0.8.0+commit.c7dfd78e.Emscripten.clang"
  },
  "schemaVersion": "3.4.1",
  "updatedAt": "2021-06-29T09:56:31.228Z",
  "networkType": "ethereum",
  "devdoc": {
    "kind": "dev",
    "methods": {
      "owner()": {
        "details": "Returns the address of the current owner."
      },
      "renounceOwnership()": {
        "details": "Leaves the contract without owner. It will not be possible to call `onlyOwner` functions anymore. Can only be called by the current owner. NOTE: Renouncing ownership will leave the contract without an owner, thereby removing any functionality that is only available to the owner."
      },
      "transferOwnership(address)": {
        "details": "Transfers ownership of the contract to a new account (`newOwner`). Can only be called by the current owner."
      }
    },
    "version": 1
  },
  "userdoc": {
    "kind": "user",
    "methods": {},
    "version": 1
  }
}