{
  "contractName": "Voting",
  "abi": [
    {
      "anonymous": false,
      "inputs": [
        {
          "indexed": true,
          "internalType": "address",
          "name": "previousOwner",
          "type": "address"
        },
        {
          "indexed": true,
          "internalType": "address",
          "name": "newOwner",
          "type": "address"
        }
      ],
      "name": "OwnershipTransferred",
      "type": "event"
    },
    {
      "anonymous": false,
      "inputs": [
        {
          "indexed": false,
          "internalType": "uint256",
          "name": "proposalId",
          "type": "uint256"
        }
      ],
      "name": "ProposalRegistered",
      "type": "event"
    },
    {
      "anonymous": false,
      "inputs": [],
      "name": "ProposalsRegistrationEnded",
      "type": "event"
    },
    {
      "anonymous": false,
      "inputs": [],
      "name": "ProposalsRegistrationStarted",
      "type": "event"
    },
    {
      "anonymous": false,
      "inputs": [
        {
          "indexed": false,
          "internalType": "address",
          "name": "voter",
          "type": "address"
        },
        {
          "indexed": false,
          "internalType": "uint256",
          "name": "proposalId",
          "type": "uint256"
        }
      ],
      "name": "Voted",
      "type": "event"
    },
    {
      "anonymous": false,
      "inputs": [
        {
          "indexed": false,
          "internalType": "address",
          "name": "voterAddress",
          "type": "address"
        }
      ],
      "name": "VoterRegistered",
      "type": "event"
    },
    {
      "anonymous": false,
      "inputs": [],
      "name": "VotesTallied",
      "type": "event"
    },
    {
      "anonymous": false,
      "inputs": [],
      "name": "VotingSessionEnded",
      "type": "event"
    },
    {
      "anonymous": false,
      "inputs": [],
      "name": "VotingSessionStarted",
      "type": "event"
    },
    {
      "anonymous": false,
      "inputs": [
        {
          "indexed": false,
          "internalType": "enum Voting.WorkflowStatus",
          "name": "previousStatus",
          "type": "uint8"
        },
        {
          "indexed": false,
          "internalType": "enum Voting.WorkflowStatus",
          "name": "newStatus",
          "type": "uint8"
        }
      ],
      "name": "WorkflowStatusChange",
      "type": "event"
    },
    {
      "inputs": [],
      "name": "owner",
      "outputs": [
        {
          "internalType": "address",
          "name": "",
          "type": "address"
        }
      ],
      "stateMutability": "view",
      "type": "function",
      "constant": true
    },
    {
      "inputs": [],
      "name": "renounceOwnership",
      "outputs": [],
      "stateMutability": "nonpayable",
      "type": "function"
    },
    {
      "inputs": [
        {
          "internalType": "address",
          "name": "newOwner",
          "type": "address"
        }
      ],
      "name": "transferOwnership",
      "outputs": [],
      "stateMutability": "nonpayable",
      "type": "function"
    },
    {
      "inputs": [],
      "name": "getStatus",
      "outputs": [
        {
          "internalType": "enum Voting.WorkflowStatus",
          "name": "",
          "type": "uint8"
        }
      ],
      "stateMutability": "view",
      "type": "function",
      "constant": true
    },
    {
      "inputs": [
        {
          "internalType": "address",
          "name": "_voter",
          "type": "address"
        }
      ],
      "name": "voterRegister",
      "outputs": [],
      "stateMutability": "nonpayable",
      "type": "function"
    },
    {
      "inputs": [],
      "name": "proposalsRegistrationStart",
      "outputs": [],
      "stateMutability": "nonpayable",
      "type": "function"
    },
    {
      "inputs": [
        {
          "internalType": "string",
          "name": "_description",
          "type": "string"
        }
      ],
      "name": "proposalRegister",
      "outputs": [],
      "stateMutability": "nonpayable",
      "type": "function"
    },
    {
      "inputs": [],
      "name": "proposalsRegistrationEnd",
      "outputs": [],
      "stateMutability": "nonpayable",
      "type": "function"
    },
    {
      "inputs": [],
      "name": "getAllDescription",
      "outputs": [
        {
          "components": [
            {
              "internalType": "string",
              "name": "description",
              "type": "string"
            },
            {
              "internalType": "uint256",
              "name": "voteCount",
              "type": "uint256"
            }
          ],
          "internalType": "struct Voting.Proposal[]",
          "name": "",
          "type": "tuple[]"
        }
      ],
      "stateMutability": "view",
      "type": "function",
      "constant": true
    },
    {
      "inputs": [],
      "name": "votingSessionStart",
      "outputs": [],
      "stateMutability": "nonpayable",
      "type": "function"
    },
    {
      "inputs": [
        {
          "internalType": "uint256",
          "name": "_proposalId",
          "type": "uint256"
        }
      ],
      "name": "vote",
      "outputs": [],
      "stateMutability": "nonpayable",
      "type": "function"
    },
    {
      "inputs": [],
      "name": "votingSessionEnd",
      "outputs": [],
      "stateMutability": "nonpayable",
      "type": "function"
    },
    {
      "inputs": [],
      "name": "defineWinner",
      "outputs": [
        {
          "internalType": "uint256",
          "name": "",
          "type": "uint256"
        }
      ],
      "stateMutability": "nonpayable",
      "type": "function"
    },
    {
      "inputs": [],
      "name": "getWinner",
      "outputs": [
        {
          "internalType": "string",
          "name": "",
          "type": "string"
        }
      ],
      "stateMutability": "view",
      "type": "function",
      "constant": true
    },
    {
      "inputs": [
        {
          "internalType": "address",
          "name": "_address",
          "type": "address"
        }
      ],
      "name": "whoDidYouVoteFor",
      "outputs": [
        {
          "internalType": "uint256",
          "name": "",
          "type": "uint256"
        }
      ],
      "stateMutability": "view",
      "type": "function",
      "constant": true
    }
  ],
  "bytecode": "0x60806040523480156200001157600080fd5b5062000032620000266200003860201b60201c565b6200004060201b60201c565b62000104565b600033905090565b60008060009054906101000a900473ffffffffffffffffffffffffffffffffffffffff169050816000806101000a81548173ffffffffffffffffffffffffffffffffffffffff021916908373ffffffffffffffffffffffffffffffffffffffff1602179055508173ffffffffffffffffffffffffffffffffffffffff168173ffffffffffffffffffffffffffffffffffffffff167f8be0079c531659141344cd1fd0a4f28419497f9722a3daafe3b4186f6b6457e060405160405180910390a35050565b612b7180620001146000396000f3fe608060405234801561001057600080fd5b50600436106100f55760003560e01c8063aa64547c11610097578063c6b6fad211610066578063c6b6fad214610200578063cba1b3111461021e578063ec7fec8b14610228578063f2fde38b14610246576100f5565b8063aa64547c146101b4578063af154087146101be578063b20cd9d0146101da578063c143bb2d146101e4576100f5565b8063715018a6116100d3578063715018a61461013e5780638da5cb5b146101485780638e7ea5b2146101665780639ead29c514610184576100f5565b80630121b93f146100fa5780632bf08b0b146101165780634e69d56014610120575b600080fd5b610114600480360381019061010f9190611f74565b610262565b005b61011e6105e2565b005b61012861075a565b6040516101359190612554565b60405180910390f35b610146610771565b005b6101506107f9565b60405161015d91906124ee565b60405180910390f35b61016e610822565b60405161017b9190612598565b60405180910390f35b61019e60048036038101906101999190611f0a565b6109c3565b6040516101ab91906126da565b60405180910390f35b6101bc610ad3565b005b6101d860048036038101906101d39190611f0a565b610c4b565b005b6101e2610eb6565b005b6101fe60048036038101906101f99190611f33565b61102e565b005b610208611249565b6040516102159190612532565b60405180910390f35b6102266114da565b005b610230611697565b60405161023d91906126da565b60405180910390f35b610260600480360381019061025b9190611f0a565b611925565b005b600380600581111561029d577f4e487b7100000000000000000000000000000000000000000000000000000000600052602160045260246000fd5b600560009054906101000a900460ff1660058111156102e5577f4e487b7100000000000000000000000000000000000000000000000000000000600052602160045260246000fd5b14610325576040517f08c379a000000000000000000000000000000000000000000000000000000000815260040161031c9061267a565b60405180910390fd5b60011515600360003373ffffffffffffffffffffffffffffffffffffffff1673ffffffffffffffffffffffffffffffffffffffff16815260200190815260200160002060000160009054906101000a900460ff161515146103bb576040517f08c379a00000000000000000000000000000000000000000000000000000000081526004016103b29061263a565b60405180910390fd5b60001515600360003373ffffffffffffffffffffffffffffffffffffffff1673ffffffffffffffffffffffffffffffffffffffff16815260200190815260200160002060000160019054906101000a900460ff16151514610451576040517f08c379a0000000000000000000000000000000000000000000000000000000008152600401610448906126ba565b60405180910390fd5b6001600254610460919061289e565b8211156104a2576040517f08c379a00000000000000000000000000000000000000000000000000000000081526004016104999061269a565b60405180910390fd5b6001600360003373ffffffffffffffffffffffffffffffffffffffff1673ffffffffffffffffffffffffffffffffffffffff16815260200190815260200160002060000160016101000a81548160ff02191690831515021790555081600360003373ffffffffffffffffffffffffffffffffffffffff1673ffffffffffffffffffffffffffffffffffffffff168152602001908152602001600020600101819055506004828154811061057e577f4e487b7100000000000000000000000000000000000000000000000000000000600052603260045260246000fd5b906000526020600020906002020160010160008154809291906105a0906129b4565b91905055507f4d99b957a2bc29a30ebd96a7be8e68fe50a3c701db28a91436490b7d53870ca433836040516105d6929190612509565b60405180910390a15050565b6105ea611a1d565b73ffffffffffffffffffffffffffffffffffffffff166106086107f9565b73ffffffffffffffffffffffffffffffffffffffff161461065e576040517f08c379a00000000000000000000000000000000000000000000000000000000081526004016106559061265a565b60405180910390fd5b6003806005811115610699577f4e487b7100000000000000000000000000000000000000000000000000000000600052602160045260246000fd5b600560009054906101000a900460ff1660058111156106e1577f4e487b7100000000000000000000000000000000000000000000000000000000600052602160045260246000fd5b14610721576040517f08c379a00000000000000000000000000000000000000000000000000000000081526004016107189061267a565b60405180910390fd5b61072b6004611a25565b7fc379d349a6301baf50fb2f98d829f4ae10b1cdb7c66f4e4d8117302df7b8cd4c60405160405180910390a150565b6000600560009054906101000a900460ff16905090565b610779611a1d565b73ffffffffffffffffffffffffffffffffffffffff166107976107f9565b73ffffffffffffffffffffffffffffffffffffffff16146107ed576040517f08c379a00000000000000000000000000000000000000000000000000000000081526004016107e49061265a565b60405180910390fd5b6107f76000611b3c565b565b60008060009054906101000a900473ffffffffffffffffffffffffffffffffffffffff16905090565b6060600580600581111561085f577f4e487b7100000000000000000000000000000000000000000000000000000000600052602160045260246000fd5b600560009054906101000a900460ff1660058111156108a7577f4e487b7100000000000000000000000000000000000000000000000000000000600052602160045260246000fd5b146108e7576040517f08c379a00000000000000000000000000000000000000000000000000000000081526004016108de9061267a565b60405180910390fd5b600460015481548110610923577f4e487b7100000000000000000000000000000000000000000000000000000000600052603260045260246000fd5b9060005260206000209060020201600001805461093f90612982565b80601f016020809104026020016040519081016040528092919081815260200182805461096b90612982565b80156109b85780601f1061098d576101008083540402835291602001916109b8565b820191906000526020600020905b81548152906001019060200180831161099b57829003601f168201915b505050505091505090565b60006005806005811115610a00577f4e487b7100000000000000000000000000000000000000000000000000000000600052602160045260246000fd5b600560009054906101000a900460ff166005811115610a48577f4e487b7100000000000000000000000000000000000000000000000000000000600052602160045260246000fd5b14610a88576040517f08c379a0000000000000000000000000000000000000000000000000000000008152600401610a7f9061267a565b60405180910390fd5b600360008473ffffffffffffffffffffffffffffffffffffffff1673ffffffffffffffffffffffffffffffffffffffff16815260200190815260200160002060010154915050919050565b610adb611a1d565b73ffffffffffffffffffffffffffffffffffffffff16610af96107f9565b73ffffffffffffffffffffffffffffffffffffffff1614610b4f576040517f08c379a0000000000000000000000000000000000000000000000000000000008152600401610b469061265a565b60405180910390fd5b6000806005811115610b8a577f4e487b7100000000000000000000000000000000000000000000000000000000600052602160045260246000fd5b600560009054906101000a900460ff166005811115610bd2577f4e487b7100000000000000000000000000000000000000000000000000000000600052602160045260246000fd5b14610c12576040517f08c379a0000000000000000000000000000000000000000000000000000000008152600401610c099061267a565b60405180910390fd5b610c1c6001611a25565b7f344c25562921d075a298d34b6dd1fd00d36ff293974539dfd4a8c625d9f0064c60405160405180910390a150565b610c53611a1d565b73ffffffffffffffffffffffffffffffffffffffff16610c716107f9565b73ffffffffffffffffffffffffffffffffffffffff1614610cc7576040517f08c379a0000000000000000000000000000000000000000000000000000000008152600401610cbe9061265a565b60405180910390fd5b6000806005811115610d02577f4e487b7100000000000000000000000000000000000000000000000000000000600052602160045260246000fd5b600560009054906101000a900460ff166005811115610d4a577f4e487b7100000000000000000000000000000000000000000000000000000000600052602160045260246000fd5b14610d8a576040517f08c379a0000000000000000000000000000000000000000000000000000000008152600401610d819061267a565b60405180910390fd5b60001515600360008473ffffffffffffffffffffffffffffffffffffffff1673ffffffffffffffffffffffffffffffffffffffff16815260200190815260200160002060000160009054906101000a900460ff16151514610e20576040517f08c379a0000000000000000000000000000000000000000000000000000000008152600401610e179061261a565b60405180910390fd5b6001600360008473ffffffffffffffffffffffffffffffffffffffff1673ffffffffffffffffffffffffffffffffffffffff16815260200190815260200160002060000160006101000a81548160ff0219169083151502179055507fb6be2187d059cc2a55fe29e0e503b566e1e0f8c8780096e185429350acffd3dd82604051610eaa91906124ee565b60405180910390a15050565b610ebe611a1d565b73ffffffffffffffffffffffffffffffffffffffff16610edc6107f9565b73ffffffffffffffffffffffffffffffffffffffff1614610f32576040517f08c379a0000000000000000000000000000000000000000000000000000000008152600401610f299061265a565b60405180910390fd5b6002806005811115610f6d577f4e487b7100000000000000000000000000000000000000000000000000000000600052602160045260246000fd5b600560009054906101000a900460ff166005811115610fb5577f4e487b7100000000000000000000000000000000000000000000000000000000600052602160045260246000fd5b14610ff5576040517f08c379a0000000000000000000000000000000000000000000000000000000008152600401610fec9061267a565b60405180910390fd5b610fff6003611a25565b7f1b8e19a458c1bcd88553332c518cc5c4e2d5793e712ee766d4f1c14f672ef1f560405160405180910390a150565b6001806005811115611069577f4e487b7100000000000000000000000000000000000000000000000000000000600052602160045260246000fd5b600560009054906101000a900460ff1660058111156110b1577f4e487b7100000000000000000000000000000000000000000000000000000000600052602160045260246000fd5b146110f1576040517f08c379a00000000000000000000000000000000000000000000000000000000081526004016110e89061267a565b60405180910390fd5b60011515600360003373ffffffffffffffffffffffffffffffffffffffff1673ffffffffffffffffffffffffffffffffffffffff16815260200190815260200160002060000160009054906101000a900460ff16151514611187576040517f08c379a000000000000000000000000000000000000000000000000000000000815260040161117e9061263a565b60405180910390fd5b600460405180604001604052808481526020016000815250908060018154018082558091505060019003906000526020600020906002020160009091909190915060008201518160000190805190602001906111e4929190611dd5565b5060208201518160010155505060026000815480929190611204906129b4565b91905055507f92e393e9b54e2f801d3ea4beb0c5e71a21cc34a5d34b77d0fb8a3aa1650dc18f60048054905060405161123d91906126da565b60405180910390a15050565b606060016005811115611285577f4e487b7100000000000000000000000000000000000000000000000000000000600052602160045260246000fd5b600560009054906101000a900460ff1660058111156112cd577f4e487b7100000000000000000000000000000000000000000000000000000000600052602160045260246000fd5b1161130d576040517f08c379a00000000000000000000000000000000000000000000000000000000081526004016113049061267a565b60405180910390fd5b60006040518060400160405280601781526020017f50726f706f73616c73204465736372697074696f6e203a000000000000000000815250905060005b6002548110156113df578161135e82611c00565b60048381548110611398577f4e487b7100000000000000000000000000000000000000000000000000000000600052603260045260246000fd5b90600052602060002090600202016000016040516020016113bb939291906124a7565b604051602081830303815290604052915080806113d7906129b4565b91505061134a565b506004805480602002602001604051908101604052809291908181526020016000905b828210156114d0578382906000526020600020906002020160405180604001604052908160008201805461143590612982565b80601f016020809104026020016040519081016040528092919081815260200182805461146190612982565b80156114ae5780601f10611483576101008083540402835291602001916114ae565b820191906000526020600020905b81548152906001019060200180831161149157829003601f168201915b5050505050815260200160018201548152505081526020019060010190611402565b5050505091505090565b6114e2611a1d565b73ffffffffffffffffffffffffffffffffffffffff166115006107f9565b73ffffffffffffffffffffffffffffffffffffffff1614611556576040517f08c379a000000000000000000000000000000000000000000000000000000000815260040161154d9061265a565b60405180910390fd5b6001806005811115611591577f4e487b7100000000000000000000000000000000000000000000000000000000600052602160045260246000fd5b600560009054906101000a900460ff1660058111156115d9577f4e487b7100000000000000000000000000000000000000000000000000000000600052602160045260246000fd5b14611619576040517f08c379a00000000000000000000000000000000000000000000000000000000081526004016116109061267a565b60405180910390fd5b60016002541161165e576040517f08c379a0000000000000000000000000000000000000000000000000000000008152600401611655906125fa565b60405180910390fd5b6116686002611a25565b7f240cb87b2e4df4c318e72bd714d45a9cad60249e883ff56b1fffd83a4595a8fa60405160405180910390a150565b60006116a1611a1d565b73ffffffffffffffffffffffffffffffffffffffff166116bf6107f9565b73ffffffffffffffffffffffffffffffffffffffff1614611715576040517f08c379a000000000000000000000000000000000000000000000000000000000815260040161170c9061265a565b60405180910390fd5b6004806005811115611750577f4e487b7100000000000000000000000000000000000000000000000000000000600052602160045260246000fd5b600560009054906101000a900460ff166005811115611798577f4e487b7100000000000000000000000000000000000000000000000000000000600052602160045260246000fd5b146117d8576040517f08c379a00000000000000000000000000000000000000000000000000000000081526004016117cf9061267a565b60405180910390fd5b60006002541161181d576040517f08c379a0000000000000000000000000000000000000000000000000000000008152600401611814906125da565b60405180910390fd5b60005b6002548110156118e55760048181548110611864577f4e487b7100000000000000000000000000000000000000000000000000000000600052603260045260246000fd5b9060005260206000209060020201600101546004600154815481106118b2577f4e487b7100000000000000000000000000000000000000000000000000000000600052603260045260246000fd5b90600052602060002090600202016001015410156118d257806001819055505b80806118dd906129b4565b915050611820565b506118f06005611a25565b7f0e5e95ff8725ab3e7a4b6b59998a4c344c2aa8d1485f5e60cb7f337768e6134760405160405180910390a160015491505090565b61192d611a1d565b73ffffffffffffffffffffffffffffffffffffffff1661194b6107f9565b73ffffffffffffffffffffffffffffffffffffffff16146119a1576040517f08c379a00000000000000000000000000000000000000000000000000000000081526004016119989061265a565b60405180910390fd5b600073ffffffffffffffffffffffffffffffffffffffff168173ffffffffffffffffffffffffffffffffffffffff161415611a11576040517f08c379a0000000000000000000000000000000000000000000000000000000008152600401611a08906125ba565b60405180910390fd5b611a1a81611b3c565b50565b600033905090565b611a2d611a1d565b73ffffffffffffffffffffffffffffffffffffffff16611a4b6107f9565b73ffffffffffffffffffffffffffffffffffffffff1614611aa1576040517f08c379a0000000000000000000000000000000000000000000000000000000008152600401611a989061265a565b60405180910390fd5b80600560006101000a81548160ff02191690836005811115611aec577f4e487b7100000000000000000000000000000000000000000000000000000000600052602160045260246000fd5b02179055507f0a97a4ee45751e2abf3e4fc8946939630b11b371ea8ae39ccdc3056e98f5cc3f600560009054906101000a900460ff1682604051611b3192919061256f565b60405180910390a150565b60008060009054906101000a900473ffffffffffffffffffffffffffffffffffffffff169050816000806101000a81548173ffffffffffffffffffffffffffffffffffffffff021916908373ffffffffffffffffffffffffffffffffffffffff1602179055508173ffffffffffffffffffffffffffffffffffffffff168173ffffffffffffffffffffffffffffffffffffffff167f8be0079c531659141344cd1fd0a4f28419497f9722a3daafe3b4186f6b6457e060405160405180910390a35050565b60606000821415611c48576040518060400160405280600181526020017f30000000000000000000000000000000000000000000000000000000000000008152509050611dd0565b600082905060005b60008214611c7a578080611c63906129b4565b915050600a82611c739190612813565b9150611c50565b60008167ffffffffffffffff811115611cbc577f4e487b7100000000000000000000000000000000000000000000000000000000600052604160045260246000fd5b6040519080825280601f01601f191660200182016040528015611cee5781602001600182028036833780820191505090505b50905060008290505b60008614611dc857600181611d0c919061289e565b90506000600a8088611d1e9190612813565b611d289190612844565b87611d33919061289e565b6030611d3f91906127dc565b905060008160f81b905080848481518110611d83577f4e487b7100000000000000000000000000000000000000000000000000000000600052603260045260246000fd5b60200101907effffffffffffffffffffffffffffffffffffffffffffffffffffffffffffff1916908160001a905350600a88611dbf9190612813565b97505050611cf7565b819450505050505b919050565b828054611de190612982565b90600052602060002090601f016020900481019282611e035760008555611e4a565b82601f10611e1c57805160ff1916838001178555611e4a565b82800160010185558215611e4a579182015b82811115611e49578251825591602001919060010190611e2e565b5b509050611e579190611e5b565b5090565b5b80821115611e74576000816000905550600101611e5c565b5090565b6000611e8b611e8684612726565b6126f5565b905082815260208101848484011115611ea357600080fd5b611eae848285612940565b509392505050565b600081359050611ec581612b0d565b92915050565b600082601f830112611edc57600080fd5b8135611eec848260208601611e78565b91505092915050565b600081359050611f0481612b24565b92915050565b600060208284031215611f1c57600080fd5b6000611f2a84828501611eb6565b91505092915050565b600060208284031215611f4557600080fd5b600082013567ffffffffffffffff811115611f5f57600080fd5b611f6b84828501611ecb565b91505092915050565b600060208284031215611f8657600080fd5b6000611f9484828501611ef5565b91505092915050565b6000611fa9838361244c565b905092915050565b611fba816128d2565b82525050565b6000611fcb8261277b565b611fd5818561279e565b935083602082028501611fe785612756565b8060005b8581101561202357848403895281516120048582611f9d565b945061200f83612791565b925060208a01995050600181019050611feb565b50829750879550505050505092915050565b61203e8161292e565b82525050565b600061204f82612786565b61205981856127af565b935061206981856020860161294f565b61207281612ae8565b840191505092915050565b600061208882612786565b61209281856127c0565b93506120a281856020860161294f565b6120ab81612ae8565b840191505092915050565b60006120c182612786565b6120cb81856127d1565b93506120db81856020860161294f565b80840191505092915050565b600081546120f481612982565b6120fe81866127d1565b94506001821660008114612119576001811461212a5761215d565b60ff1983168652818601935061215d565b61213385612766565b60005b8381101561215557815481890152600182019150602081019050612136565b838801955050505b50505092915050565b60006121736026836127c0565b91507f4f776e61626c653a206e6577206f776e657220697320746865207a65726f206160008301527f64647265737300000000000000000000000000000000000000000000000000006020830152604082019050919050565b60006121d96012836127c0565b91507f4572726f722c206e6f2070726f706f73616c00000000000000000000000000006000830152602082019050919050565b60006122196016836127c0565b91507f5765206e656564206d6f72652070726f706f73616c73000000000000000000006000830152602082019050919050565b60006122596012836127c0565b91507f416c7265616479205265676973746572656400000000000000000000000000006000830152602082019050919050565b60006122996002836127d1565b91507f0a0a0000000000000000000000000000000000000000000000000000000000006000830152600282019050919050565b60006122d96014836127c0565b91507f566f746572206e6f7420526567697374657265640000000000000000000000006000830152602082019050919050565b60006123196020836127c0565b91507f4f776e61626c653a2063616c6c6572206973206e6f7420746865206f776e65726000830152602082019050919050565b60006123596003836127d1565b91507f202d2000000000000000000000000000000000000000000000000000000000006000830152600382019050919050565b6000612399600c836127c0565b91507f496e76616c6964205374657000000000000000000000000000000000000000006000830152602082019050919050565b60006123d96010836127c0565b91507f496e76616c69642070726f706f73616c000000000000000000000000000000006000830152602082019050919050565b60006124196012836127c0565b91507f566f746520616c72656164792074616b656e00000000000000000000000000006000830152602082019050919050565b600060408301600083015184820360008601526124698282612044565b915050602083015161247e6020860182612489565b508091505092915050565b61249281612917565b82525050565b6124a181612917565b82525050565b60006124b382866120b6565b91506124be8261228c565b91506124ca82856120b6565b91506124d58261234c565b91506124e182846120e7565b9150819050949350505050565b60006020820190506125036000830184611fb1565b92915050565b600060408201905061251e6000830185611fb1565b61252b6020830184612498565b9392505050565b6000602082019050818103600083015261254c8184611fc0565b905092915050565b60006020820190506125696000830184612035565b92915050565b60006040820190506125846000830185612035565b6125916020830184612035565b9392505050565b600060208201905081810360008301526125b2818461207d565b905092915050565b600060208201905081810360008301526125d381612166565b9050919050565b600060208201905081810360008301526125f3816121cc565b9050919050565b600060208201905081810360008301526126138161220c565b9050919050565b600060208201905081810360008301526126338161224c565b9050919050565b60006020820190508181036000830152612653816122cc565b9050919050565b600060208201905081810360008301526126738161230c565b9050919050565b600060208201905081810360008301526126938161238c565b9050919050565b600060208201905081810360008301526126b3816123cc565b9050919050565b600060208201905081810360008301526126d38161240c565b9050919050565b60006020820190506126ef6000830184612498565b92915050565b6000604051905081810181811067ffffffffffffffff8211171561271c5761271b612ab9565b5b8060405250919050565b600067ffffffffffffffff82111561274157612740612ab9565b5b601f19601f8301169050602081019050919050565b6000819050602082019050919050565b60008190508160005260206000209050919050565b600081519050919050565b600081519050919050565b6000602082019050919050565b600082825260208201905092915050565b600082825260208201905092915050565b600082825260208201905092915050565b600081905092915050565b60006127e782612921565b91506127f283612921565b92508260ff03821115612808576128076129fd565b5b828201905092915050565b600061281e82612917565b915061282983612917565b92508261283957612838612a2c565b5b828204905092915050565b600061284f82612917565b915061285a83612917565b9250817fffffffffffffffffffffffffffffffffffffffffffffffffffffffffffffffff0483118215151615612893576128926129fd565b5b828202905092915050565b60006128a982612917565b91506128b483612917565b9250828210156128c7576128c66129fd565b5b828203905092915050565b60006128dd826128f7565b9050919050565b60008190506128f282612af9565b919050565b600073ffffffffffffffffffffffffffffffffffffffff82169050919050565b6000819050919050565b600060ff82169050919050565b6000612939826128e4565b9050919050565b82818337600083830152505050565b60005b8381101561296d578082015181840152602081019050612952565b8381111561297c576000848401525b50505050565b6000600282049050600182168061299a57607f821691505b602082108114156129ae576129ad612a8a565b5b50919050565b60006129bf82612917565b91507fffffffffffffffffffffffffffffffffffffffffffffffffffffffffffffffff8214156129f2576129f16129fd565b5b600182019050919050565b7f4e487b7100000000000000000000000000000000000000000000000000000000600052601160045260246000fd5b7f4e487b7100000000000000000000000000000000000000000000000000000000600052601260045260246000fd5b7f4e487b7100000000000000000000000000000000000000000000000000000000600052602160045260246000fd5b7f4e487b7100000000000000000000000000000000000000000000000000000000600052602260045260246000fd5b7f4e487b7100000000000000000000000000000000000000000000000000000000600052604160045260246000fd5b6000601f19601f8301169050919050565b60068110612b0a57612b09612a5b565b5b50565b612b16816128d2565b8114612b2157600080fd5b50565b612b2d81612917565b8114612b3857600080fd5b5056fea26469706673582212205f244d9479e3edfac62bc9f8a343c32e81ce2f6e0d258265aa06d661c47adbf364736f6c63430008000033",
  "immutableReferences": {},
  "source": "// SPDX-License-Identifier: GPL-3.0\npragma solidity 0.8.0;\n\nimport \"./Ownable.sol\";\n\ncontract Voting is Ownable {\n    struct Voter {\n        bool isRegistered;\n        bool hasVoted;\n        uint votedProposalId;\n    }\n\n    struct Proposal {\n        string description;\n        uint voteCount;\n    }\n    \n    enum WorkflowStatus {\n        RegisteringVoters,\n        ProposalsRegistrationStarted,\n        ProposalsRegistrationEnded,\n        VotingSessionStarted,\n        VotingSessionEnded,\n        VotesTallied\n    }\n    \n    event VoterRegistered(address voterAddress);\n    event ProposalsRegistrationStarted();\n    event ProposalsRegistrationEnded();\n    event ProposalRegistered(uint proposalId);\n    event VotingSessionStarted();\n    event VotingSessionEnded();\n    event Voted (address voter, uint proposalId);\n    event VotesTallied();\n    event WorkflowStatusChange(WorkflowStatus previousStatus, WorkflowStatus newStatus);\n    \n    uint private winningProposalId;\n    uint numberProposals;\n    mapping(address => Voter) voters;\n    Proposal[] proposals;\n    WorkflowStatus private status;\n    \n    modifier checkStatus(WorkflowStatus _status) {\n        require(status == _status, \"Invalid Step\");\n        _;\n    }\n    \n    function uint2str(uint _i) internal pure returns (string memory _uintAsString) {\n        if (_i == 0) {\n            return \"0\";\n        }\n        uint j = _i;\n        uint len;\n        while (j != 0) {\n            len++;\n            j /= 10;\n        }\n        bytes memory bstr = new bytes(len);\n        uint k = len;\n        while (_i != 0) {\n            k = k-1;\n            uint8 temp = (48 + uint8(_i - _i / 10 * 10));\n            bytes1 b1 = bytes1(temp);\n            bstr[k] = b1;\n            _i /= 10;\n        }\n        return string(bstr);\n    }\n    \n    function getStatus() public view returns(WorkflowStatus) {\n        return status;\n    }\n    \n    function changeStatus(WorkflowStatus _status) internal onlyOwner {\n        status = _status;\n        emit WorkflowStatusChange(status, _status);\n    }\n    \n    function voterRegister(address _voter) public onlyOwner checkStatus(WorkflowStatus.RegisteringVoters) {\n        require(voters[_voter].isRegistered == false, \"Already Registered\");\n        voters[_voter].isRegistered = true;\n        emit VoterRegistered(_voter);\n    }\n    \n    function proposalsRegistrationStart() public onlyOwner checkStatus(WorkflowStatus.RegisteringVoters) {\n        changeStatus(WorkflowStatus.ProposalsRegistrationStarted);\n        emit ProposalsRegistrationStarted();\n    }\n    \n    function proposalRegister(string memory _description) public checkStatus(WorkflowStatus.ProposalsRegistrationStarted) {\n        require(voters[msg.sender].isRegistered == true, \"Voter not Registered\");\n        proposals.push(Proposal(_description, 0));\n        numberProposals++;\n        emit ProposalRegistered(proposals.length);\n    }\n    \n    function proposalsRegistrationEnd() public onlyOwner checkStatus(WorkflowStatus.ProposalsRegistrationStarted) {\n        require(numberProposals > 1, \"We need more proposals\");\n        changeStatus(WorkflowStatus.ProposalsRegistrationEnded);\n        emit ProposalsRegistrationEnded();\n    }\n    \n    function getAllDescription() public view returns(Proposal[] memory) {\n        require(status > WorkflowStatus.ProposalsRegistrationStarted, \"Invalid Step\");\n        string memory str = \"Proposals Description :\";\n        for (uint i = 0; i < numberProposals; i++) {\n            str = string(abi.encodePacked(str, \"\\n\\n\", uint2str(i), \" - \", proposals[i].description));\n        }\n        return proposals;\n    }\n    \n    function votingSessionStart() public onlyOwner checkStatus(WorkflowStatus.ProposalsRegistrationEnded) {\n        changeStatus(WorkflowStatus.VotingSessionStarted);\n        emit VotingSessionStarted();\n    }\n    \n    function vote(uint _proposalId) public checkStatus(WorkflowStatus.VotingSessionStarted) {\n        require(voters[msg.sender].isRegistered == true, \"Voter not Registered\");\n        require(voters[msg.sender].hasVoted == false, \"Vote already taken\");\n        require(_proposalId <= numberProposals - 1, \"Invalid proposal\");\n        voters[msg.sender].hasVoted = true;\n        voters[msg.sender].votedProposalId = _proposalId;\n        proposals[_proposalId].voteCount++;\n        emit Voted(msg.sender, _proposalId);\n    }\n    \n    function votingSessionEnd() public onlyOwner checkStatus(WorkflowStatus.VotingSessionStarted) {\n        changeStatus(WorkflowStatus.VotingSessionEnded);\n        emit VotingSessionEnded();\n    }\n    \n    function defineWinner() public onlyOwner checkStatus(WorkflowStatus.VotingSessionEnded) returns(uint) {\n        require(numberProposals > 0, \"Error, no proposal\");\n        for (uint i = 0; i < numberProposals; i++) {\n            if (proposals[winningProposalId].voteCount < proposals[i].voteCount)\n                winningProposalId = i;\n        }\n        changeStatus(WorkflowStatus.VotesTallied);\n        emit VotesTallied();\n        return winningProposalId;\n    }\n    \n    function getWinner() public view checkStatus(WorkflowStatus.VotesTallied) returns(string memory) {\n        return string(proposals[winningProposalId].description);\n    }\n    \n    function whoDidYouVoteFor(address _address) public view checkStatus(WorkflowStatus.VotesTallied) returns(uint) {\n        return voters[_address].votedProposalId;\n    }\n}",
  "sourcePath": "/home/keymon/Work/dApp/voting/contracts/Voting.sol",
  "compiler": {
    "name": "solc",
    "version": "0.8.0+commit.c7dfd78e.Emscripten.clang"
  },
  "schemaVersion": "3.4.1",
  "updatedAt": "2021-06-20T23:54:01.911Z",
  "networkType": "ethereum",
  "devdoc": {
    "kind": "dev",
    "methods": {
      "owner()": {
        "details": "Returns the address of the current owner."
      },
      "renounceOwnership()": {
        "details": "Leaves the contract without owner. It will not be possible to call `onlyOwner` functions anymore. Can only be called by the current owner. NOTE: Renouncing ownership will leave the contract without an owner, thereby removing any functionality that is only available to the owner."
      },
      "transferOwnership(address)": {
        "details": "Transfers ownership of the contract to a new account (`newOwner`). Can only be called by the current owner."
      }
    },
    "version": 1
  },
  "userdoc": {
    "kind": "user",
    "methods": {},
    "version": 1
  }
}