{
  "contractName": "Voting",
  "abi": [
    {
      "anonymous": false,
      "inputs": [
        {
          "indexed": true,
          "internalType": "address",
          "name": "previousOwner",
          "type": "address"
        },
        {
          "indexed": true,
          "internalType": "address",
          "name": "newOwner",
          "type": "address"
        }
      ],
      "name": "OwnershipTransferred",
      "type": "event"
    },
    {
      "anonymous": false,
      "inputs": [
        {
          "indexed": false,
          "internalType": "uint256",
          "name": "proposalId",
          "type": "uint256"
        }
      ],
      "name": "ProposalRegistered",
      "type": "event"
    },
    {
      "anonymous": false,
      "inputs": [],
      "name": "ProposalsRegistrationEnded",
      "type": "event"
    },
    {
      "anonymous": false,
      "inputs": [],
      "name": "ProposalsRegistrationStarted",
      "type": "event"
    },
    {
      "anonymous": false,
      "inputs": [
        {
          "indexed": false,
          "internalType": "address",
          "name": "voter",
          "type": "address"
        },
        {
          "indexed": false,
          "internalType": "uint256",
          "name": "proposalId",
          "type": "uint256"
        }
      ],
      "name": "Voted",
      "type": "event"
    },
    {
      "anonymous": false,
      "inputs": [
        {
          "indexed": false,
          "internalType": "address",
          "name": "voterAddress",
          "type": "address"
        }
      ],
      "name": "VoterRegistered",
      "type": "event"
    },
    {
      "anonymous": false,
      "inputs": [],
      "name": "VotesTallied",
      "type": "event"
    },
    {
      "anonymous": false,
      "inputs": [],
      "name": "VotingSessionEnded",
      "type": "event"
    },
    {
      "anonymous": false,
      "inputs": [],
      "name": "VotingSessionStarted",
      "type": "event"
    },
    {
      "anonymous": false,
      "inputs": [
        {
          "indexed": false,
          "internalType": "enum Voting.WorkflowStatus",
          "name": "previousStatus",
          "type": "uint8"
        },
        {
          "indexed": false,
          "internalType": "enum Voting.WorkflowStatus",
          "name": "newStatus",
          "type": "uint8"
        }
      ],
      "name": "WorkflowStatusChange",
      "type": "event"
    },
    {
      "inputs": [],
      "name": "owner",
      "outputs": [
        {
          "internalType": "address",
          "name": "",
          "type": "address"
        }
      ],
      "stateMutability": "view",
      "type": "function",
      "constant": true
    },
    {
      "inputs": [
        {
          "internalType": "string",
          "name": "",
          "type": "string"
        }
      ],
      "name": "proposals",
      "outputs": [
        {
          "internalType": "string",
          "name": "description",
          "type": "string"
        },
        {
          "internalType": "uint256",
          "name": "voteCount",
          "type": "uint256"
        }
      ],
      "stateMutability": "view",
      "type": "function",
      "constant": true
    },
    {
      "inputs": [],
      "name": "renounceOwnership",
      "outputs": [],
      "stateMutability": "nonpayable",
      "type": "function"
    },
    {
      "inputs": [
        {
          "internalType": "address",
          "name": "newOwner",
          "type": "address"
        }
      ],
      "name": "transferOwnership",
      "outputs": [],
      "stateMutability": "nonpayable",
      "type": "function"
    },
    {
      "inputs": [],
      "name": "getStatus",
      "outputs": [
        {
          "internalType": "enum Voting.WorkflowStatus",
          "name": "",
          "type": "uint8"
        }
      ],
      "stateMutability": "view",
      "type": "function",
      "constant": true
    },
    {
      "inputs": [
        {
          "internalType": "address",
          "name": "_voter",
          "type": "address"
        }
      ],
      "name": "voterRegister",
      "outputs": [],
      "stateMutability": "nonpayable",
      "type": "function"
    },
    {
      "inputs": [],
      "name": "proposalsRegistrationStart",
      "outputs": [],
      "stateMutability": "nonpayable",
      "type": "function"
    },
    {
      "inputs": [
        {
          "internalType": "string",
          "name": "_description",
          "type": "string"
        }
      ],
      "name": "proposalRegister",
      "outputs": [],
      "stateMutability": "nonpayable",
      "type": "function"
    },
    {
      "inputs": [],
      "name": "proposalsRegistrationEnd",
      "outputs": [],
      "stateMutability": "nonpayable",
      "type": "function"
    },
    {
      "inputs": [],
      "name": "getAllDescription",
      "outputs": [
        {
          "internalType": "string[]",
          "name": "",
          "type": "string[]"
        }
      ],
      "stateMutability": "view",
      "type": "function",
      "constant": true
    },
    {
      "inputs": [],
      "name": "votingSessionStart",
      "outputs": [],
      "stateMutability": "nonpayable",
      "type": "function"
    },
    {
      "inputs": [
        {
          "internalType": "uint256",
          "name": "_proposalId",
          "type": "uint256"
        }
      ],
      "name": "vote",
      "outputs": [],
      "stateMutability": "nonpayable",
      "type": "function"
    },
    {
      "inputs": [],
      "name": "votingSessionEnd",
      "outputs": [],
      "stateMutability": "nonpayable",
      "type": "function"
    },
    {
      "inputs": [],
      "name": "defineWinner",
      "outputs": [
        {
          "internalType": "uint256",
          "name": "",
          "type": "uint256"
        }
      ],
      "stateMutability": "nonpayable",
      "type": "function"
    },
    {
      "inputs": [],
      "name": "getWinner",
      "outputs": [
        {
          "internalType": "string",
          "name": "",
          "type": "string"
        }
      ],
      "stateMutability": "view",
      "type": "function",
      "constant": true
    },
    {
      "inputs": [
        {
          "internalType": "address",
          "name": "_address",
          "type": "address"
        }
      ],
      "name": "whoDidYouVoteFor",
      "outputs": [
        {
          "internalType": "uint256",
          "name": "",
          "type": "uint256"
        }
      ],
      "stateMutability": "view",
      "type": "function",
      "constant": true
    }
  ],
  "bytecode": "0x60806040523480156200001157600080fd5b5062000032620000266200003860201b60201c565b6200004060201b60201c565b62000104565b600033905090565b60008060009054906101000a900473ffffffffffffffffffffffffffffffffffffffff169050816000806101000a81548173ffffffffffffffffffffffffffffffffffffffff021916908373ffffffffffffffffffffffffffffffffffffffff1602179055508173ffffffffffffffffffffffffffffffffffffffff168173ffffffffffffffffffffffffffffffffffffffff167f8be0079c531659141344cd1fd0a4f28419497f9722a3daafe3b4186f6b6457e060405160405180910390a35050565b61288280620001146000396000f3fe608060405234801561001057600080fd5b50600436106101005760003560e01c8063af15408711610097578063cba1b31111610066578063cba1b31114610229578063ec7fec8b14610233578063f2fde38b14610251578063ffa0d2a41461026d57610100565b8063af154087146101c9578063b20cd9d0146101e5578063c143bb2d146101ef578063c6b6fad21461020b57610100565b80638da5cb5b116100d35780638da5cb5b146101535780638e7ea5b2146101715780639ead29c51461018f578063aa64547c146101bf57610100565b80630121b93f146101055780632bf08b0b146101215780634e69d5601461012b578063715018a614610149575b600080fd5b61011f600480360381019061011a9190611e38565b61029e565b005b610129610637565b005b6101336107af565b6040516101409190612333565b60405180910390f35b6101516107c6565b005b61015b61084e565b60405161016891906122cd565b60405180910390f35b610179610877565b6040516101869190612377565b60405180910390f35b6101a960048036038101906101a49190611dce565b610a31565b6040516101b691906124e9565b60405180910390f35b6101c7610b41565b005b6101e360048036038101906101de9190611dce565b610cb9565b005b6101ed610f24565b005b61020960048036038101906102049190611df7565b61109c565b005b6102136112e4565b6040516102209190612311565b60405180910390f35b61023161147f565b005b61023b61163c565b60405161024891906124e9565b60405180910390f35b61026b60048036038101906102669190611dce565b6118fc565b005b61028760048036038101906102829190611df7565b6119f4565b604051610295929190612399565b60405180910390f35b60038060058111156102d9577f4e487b7100000000000000000000000000000000000000000000000000000000600052602160045260246000fd5b600660009054906101000a900460ff166005811115610321577f4e487b7100000000000000000000000000000000000000000000000000000000600052602160045260246000fd5b14610361576040517f08c379a000000000000000000000000000000000000000000000000000000000815260040161035890612489565b60405180910390fd5b60011515600360003373ffffffffffffffffffffffffffffffffffffffff1673ffffffffffffffffffffffffffffffffffffffff16815260200190815260200160002060000160009054906101000a900460ff161515146103f7576040517f08c379a00000000000000000000000000000000000000000000000000000000081526004016103ee90612449565b60405180910390fd5b60001515600360003373ffffffffffffffffffffffffffffffffffffffff1673ffffffffffffffffffffffffffffffffffffffff16815260200190815260200160002060000160019054906101000a900460ff1615151461048d576040517f08c379a0000000000000000000000000000000000000000000000000000000008152600401610484906124c9565b60405180910390fd5b600160025461049c91906125eb565b8211156104de576040517f08c379a00000000000000000000000000000000000000000000000000000000081526004016104d5906124a9565b60405180910390fd5b6001600360003373ffffffffffffffffffffffffffffffffffffffff1673ffffffffffffffffffffffffffffffffffffffff16815260200190815260200160002060000160016101000a81548160ff02191690831515021790555081600360003373ffffffffffffffffffffffffffffffffffffffff1673ffffffffffffffffffffffffffffffffffffffff168152602001908152602001600020600101819055506005600483815481106105bc577f4e487b7100000000000000000000000000000000000000000000000000000000600052603260045260246000fd5b906000526020600020016040516105d391906122b6565b908152602001604051809103902060010160008154809291906105f5906126f4565b91905055507f4d99b957a2bc29a30ebd96a7be8e68fe50a3c701db28a91436490b7d53870ca4338360405161062b9291906122e8565b60405180910390a15050565b61063f611ab6565b73ffffffffffffffffffffffffffffffffffffffff1661065d61084e565b73ffffffffffffffffffffffffffffffffffffffff16146106b3576040517f08c379a00000000000000000000000000000000000000000000000000000000081526004016106aa90612469565b60405180910390fd5b60038060058111156106ee577f4e487b7100000000000000000000000000000000000000000000000000000000600052602160045260246000fd5b600660009054906101000a900460ff166005811115610736577f4e487b7100000000000000000000000000000000000000000000000000000000600052602160045260246000fd5b14610776576040517f08c379a000000000000000000000000000000000000000000000000000000000815260040161076d90612489565b60405180910390fd5b6107806004611abe565b7fc379d349a6301baf50fb2f98d829f4ae10b1cdb7c66f4e4d8117302df7b8cd4c60405160405180910390a150565b6000600660009054906101000a900460ff16905090565b6107ce611ab6565b73ffffffffffffffffffffffffffffffffffffffff166107ec61084e565b73ffffffffffffffffffffffffffffffffffffffff1614610842576040517f08c379a000000000000000000000000000000000000000000000000000000000815260040161083990612469565b60405180910390fd5b61084c6000611bd5565b565b60008060009054906101000a900473ffffffffffffffffffffffffffffffffffffffff16905090565b606060058060058111156108b4577f4e487b7100000000000000000000000000000000000000000000000000000000600052602160045260246000fd5b600660009054906101000a900460ff1660058111156108fc577f4e487b7100000000000000000000000000000000000000000000000000000000600052602160045260246000fd5b1461093c576040517f08c379a000000000000000000000000000000000000000000000000000000000815260040161093390612489565b60405180910390fd5b600560046001548154811061097a577f4e487b7100000000000000000000000000000000000000000000000000000000600052603260045260246000fd5b9060005260206000200160405161099191906122b6565b908152602001604051809103902060000180546109ad906126c2565b80601f01602080910402602001604051908101604052809291908181526020018280546109d9906126c2565b8015610a265780601f106109fb57610100808354040283529160200191610a26565b820191906000526020600020905b815481529060010190602001808311610a0957829003601f168201915b505050505091505090565b60006005806005811115610a6e577f4e487b7100000000000000000000000000000000000000000000000000000000600052602160045260246000fd5b600660009054906101000a900460ff166005811115610ab6577f4e487b7100000000000000000000000000000000000000000000000000000000600052602160045260246000fd5b14610af6576040517f08c379a0000000000000000000000000000000000000000000000000000000008152600401610aed90612489565b60405180910390fd5b600360008473ffffffffffffffffffffffffffffffffffffffff1673ffffffffffffffffffffffffffffffffffffffff16815260200190815260200160002060010154915050919050565b610b49611ab6565b73ffffffffffffffffffffffffffffffffffffffff16610b6761084e565b73ffffffffffffffffffffffffffffffffffffffff1614610bbd576040517f08c379a0000000000000000000000000000000000000000000000000000000008152600401610bb490612469565b60405180910390fd5b6000806005811115610bf8577f4e487b7100000000000000000000000000000000000000000000000000000000600052602160045260246000fd5b600660009054906101000a900460ff166005811115610c40577f4e487b7100000000000000000000000000000000000000000000000000000000600052602160045260246000fd5b14610c80576040517f08c379a0000000000000000000000000000000000000000000000000000000008152600401610c7790612489565b60405180910390fd5b610c8a6001611abe565b7f344c25562921d075a298d34b6dd1fd00d36ff293974539dfd4a8c625d9f0064c60405160405180910390a150565b610cc1611ab6565b73ffffffffffffffffffffffffffffffffffffffff16610cdf61084e565b73ffffffffffffffffffffffffffffffffffffffff1614610d35576040517f08c379a0000000000000000000000000000000000000000000000000000000008152600401610d2c90612469565b60405180910390fd5b6000806005811115610d70577f4e487b7100000000000000000000000000000000000000000000000000000000600052602160045260246000fd5b600660009054906101000a900460ff166005811115610db8577f4e487b7100000000000000000000000000000000000000000000000000000000600052602160045260246000fd5b14610df8576040517f08c379a0000000000000000000000000000000000000000000000000000000008152600401610def90612489565b60405180910390fd5b60001515600360008473ffffffffffffffffffffffffffffffffffffffff1673ffffffffffffffffffffffffffffffffffffffff16815260200190815260200160002060000160009054906101000a900460ff16151514610e8e576040517f08c379a0000000000000000000000000000000000000000000000000000000008152600401610e8590612429565b60405180910390fd5b6001600360008473ffffffffffffffffffffffffffffffffffffffff1673ffffffffffffffffffffffffffffffffffffffff16815260200190815260200160002060000160006101000a81548160ff0219169083151502179055507fb6be2187d059cc2a55fe29e0e503b566e1e0f8c8780096e185429350acffd3dd82604051610f1891906122cd565b60405180910390a15050565b610f2c611ab6565b73ffffffffffffffffffffffffffffffffffffffff16610f4a61084e565b73ffffffffffffffffffffffffffffffffffffffff1614610fa0576040517f08c379a0000000000000000000000000000000000000000000000000000000008152600401610f9790612469565b60405180910390fd5b6002806005811115610fdb577f4e487b7100000000000000000000000000000000000000000000000000000000600052602160045260246000fd5b600660009054906101000a900460ff166005811115611023577f4e487b7100000000000000000000000000000000000000000000000000000000600052602160045260246000fd5b14611063576040517f08c379a000000000000000000000000000000000000000000000000000000000815260040161105a90612489565b60405180910390fd5b61106d6003611abe565b7f1b8e19a458c1bcd88553332c518cc5c4e2d5793e712ee766d4f1c14f672ef1f560405160405180910390a150565b60018060058111156110d7577f4e487b7100000000000000000000000000000000000000000000000000000000600052602160045260246000fd5b600660009054906101000a900460ff16600581111561111f577f4e487b7100000000000000000000000000000000000000000000000000000000600052602160045260246000fd5b1461115f576040517f08c379a000000000000000000000000000000000000000000000000000000000815260040161115690612489565b60405180910390fd5b60011515600360003373ffffffffffffffffffffffffffffffffffffffff1673ffffffffffffffffffffffffffffffffffffffff16815260200190815260200160002060000160009054906101000a900460ff161515146111f5576040517f08c379a00000000000000000000000000000000000000000000000000000000081526004016111ec90612449565b60405180910390fd5b600482908060018154018082558091505060019003906000526020600020016000909190919091509080519060200190611230929190611c99565b5060026000815480929190611244906126f4565b91905055506040518060400160405280838152602001600081525060058360405161126f919061229f565b90815260200160405180910390206000820151816000019080519060200190611299929190611c99565b50602082015181600101559050507f92e393e9b54e2f801d3ea4beb0c5e71a21cc34a5d34b77d0fb8a3aa1650dc18f6002546040516112d891906124e9565b60405180910390a15050565b606060016005811115611320577f4e487b7100000000000000000000000000000000000000000000000000000000600052602160045260246000fd5b600660009054906101000a900460ff166005811115611368577f4e487b7100000000000000000000000000000000000000000000000000000000600052602160045260246000fd5b116113a8576040517f08c379a000000000000000000000000000000000000000000000000000000000815260040161139f90612489565b60405180910390fd5b6004805480602002602001604051908101604052809291908181526020016000905b828210156114765783829060005260206000200180546113e9906126c2565b80601f0160208091040260200160405190810160405280929190818152602001828054611415906126c2565b80156114625780601f1061143757610100808354040283529160200191611462565b820191906000526020600020905b81548152906001019060200180831161144557829003601f168201915b5050505050815260200190600101906113ca565b50505050905090565b611487611ab6565b73ffffffffffffffffffffffffffffffffffffffff166114a561084e565b73ffffffffffffffffffffffffffffffffffffffff16146114fb576040517f08c379a00000000000000000000000000000000000000000000000000000000081526004016114f290612469565b60405180910390fd5b6001806005811115611536577f4e487b7100000000000000000000000000000000000000000000000000000000600052602160045260246000fd5b600660009054906101000a900460ff16600581111561157e577f4e487b7100000000000000000000000000000000000000000000000000000000600052602160045260246000fd5b146115be576040517f08c379a00000000000000000000000000000000000000000000000000000000081526004016115b590612489565b60405180910390fd5b600160025411611603576040517f08c379a00000000000000000000000000000000000000000000000000000000081526004016115fa90612409565b60405180910390fd5b61160d6002611abe565b7f240cb87b2e4df4c318e72bd714d45a9cad60249e883ff56b1fffd83a4595a8fa60405160405180910390a150565b6000611646611ab6565b73ffffffffffffffffffffffffffffffffffffffff1661166461084e565b73ffffffffffffffffffffffffffffffffffffffff16146116ba576040517f08c379a00000000000000000000000000000000000000000000000000000000081526004016116b190612469565b60405180910390fd5b60048060058111156116f5577f4e487b7100000000000000000000000000000000000000000000000000000000600052602160045260246000fd5b600660009054906101000a900460ff16600581111561173d577f4e487b7100000000000000000000000000000000000000000000000000000000600052602160045260246000fd5b1461177d576040517f08c379a000000000000000000000000000000000000000000000000000000000815260040161177490612489565b60405180910390fd5b6000600254116117c2576040517f08c379a00000000000000000000000000000000000000000000000000000000081526004016117b9906123e9565b60405180910390fd5b60005b6002548110156118bc5760056004828154811061180b577f4e487b7100000000000000000000000000000000000000000000000000000000600052603260045260246000fd5b9060005260206000200160405161182291906122b6565b9081526020016040518091039020600101546005600460015481548110611872577f4e487b7100000000000000000000000000000000000000000000000000000000600052603260045260246000fd5b9060005260206000200160405161188991906122b6565b90815260200160405180910390206001015410156118a957806001819055505b80806118b4906126f4565b9150506117c5565b506118c76005611abe565b7f0e5e95ff8725ab3e7a4b6b59998a4c344c2aa8d1485f5e60cb7f337768e6134760405160405180910390a160015491505090565b611904611ab6565b73ffffffffffffffffffffffffffffffffffffffff1661192261084e565b73ffffffffffffffffffffffffffffffffffffffff1614611978576040517f08c379a000000000000000000000000000000000000000000000000000000000815260040161196f90612469565b60405180910390fd5b600073ffffffffffffffffffffffffffffffffffffffff168173ffffffffffffffffffffffffffffffffffffffff1614156119e8576040517f08c379a00000000000000000000000000000000000000000000000000000000081526004016119df906123c9565b60405180910390fd5b6119f181611bd5565b50565b600581805160208101820180518482526020830160208501208183528095505050505050600091509050806000018054611a2d906126c2565b80601f0160208091040260200160405190810160405280929190818152602001828054611a59906126c2565b8015611aa65780601f10611a7b57610100808354040283529160200191611aa6565b820191906000526020600020905b815481529060010190602001808311611a8957829003601f168201915b5050505050908060010154905082565b600033905090565b611ac6611ab6565b73ffffffffffffffffffffffffffffffffffffffff16611ae461084e565b73ffffffffffffffffffffffffffffffffffffffff1614611b3a576040517f08c379a0000000000000000000000000000000000000000000000000000000008152600401611b3190612469565b60405180910390fd5b80600660006101000a81548160ff02191690836005811115611b85577f4e487b7100000000000000000000000000000000000000000000000000000000600052602160045260246000fd5b02179055507f0a97a4ee45751e2abf3e4fc8946939630b11b371ea8ae39ccdc3056e98f5cc3f600660009054906101000a900460ff1682604051611bca92919061234e565b60405180910390a150565b60008060009054906101000a900473ffffffffffffffffffffffffffffffffffffffff169050816000806101000a81548173ffffffffffffffffffffffffffffffffffffffff021916908373ffffffffffffffffffffffffffffffffffffffff1602179055508173ffffffffffffffffffffffffffffffffffffffff168173ffffffffffffffffffffffffffffffffffffffff167f8be0079c531659141344cd1fd0a4f28419497f9722a3daafe3b4186f6b6457e060405160405180910390a35050565b828054611ca5906126c2565b90600052602060002090601f016020900481019282611cc75760008555611d0e565b82601f10611ce057805160ff1916838001178555611d0e565b82800160010185558215611d0e579182015b82811115611d0d578251825591602001919060010190611cf2565b5b509050611d1b9190611d1f565b5090565b5b80821115611d38576000816000905550600101611d20565b5090565b6000611d4f611d4a84612535565b612504565b905082815260208101848484011115611d6757600080fd5b611d72848285612680565b509392505050565b600081359050611d898161281e565b92915050565b600082601f830112611da057600080fd5b8135611db0848260208601611d3c565b91505092915050565b600081359050611dc881612835565b92915050565b600060208284031215611de057600080fd5b6000611dee84828501611d7a565b91505092915050565b600060208284031215611e0957600080fd5b600082013567ffffffffffffffff811115611e2357600080fd5b611e2f84828501611d8f565b91505092915050565b600060208284031215611e4a57600080fd5b6000611e5884828501611db9565b91505092915050565b6000611e6d8383611f08565b905092915050565b611e7e8161261f565b82525050565b6000611e8f8261258a565b611e9981856125ad565b935083602082028501611eab85612565565b8060005b85811015611ee75784840389528151611ec88582611e61565b9450611ed3836125a0565b925060208a01995050600181019050611eaf565b50829750879550505050505092915050565b611f028161266e565b82525050565b6000611f1382612595565b611f1d81856125be565b9350611f2d81856020860161268f565b611f36816127f9565b840191505092915050565b6000611f4c82612595565b611f5681856125cf565b9350611f6681856020860161268f565b611f6f816127f9565b840191505092915050565b6000611f8582612595565b611f8f81856125e0565b9350611f9f81856020860161268f565b80840191505092915050565b60008154611fb8816126c2565b611fc281866125e0565b94506001821660008114611fdd5760018114611fee57612021565b60ff19831686528186019350612021565b611ff785612575565b60005b8381101561201957815481890152600182019150602081019050611ffa565b838801955050505b50505092915050565b60006120376026836125cf565b91507f4f776e61626c653a206e6577206f776e657220697320746865207a65726f206160008301527f64647265737300000000000000000000000000000000000000000000000000006020830152604082019050919050565b600061209d6012836125cf565b91507f4572726f722c206e6f2070726f706f73616c00000000000000000000000000006000830152602082019050919050565b60006120dd6016836125cf565b91507f5765206e656564206d6f72652070726f706f73616c73000000000000000000006000830152602082019050919050565b600061211d6012836125cf565b91507f416c7265616479205265676973746572656400000000000000000000000000006000830152602082019050919050565b600061215d6014836125cf565b91507f566f746572206e6f7420526567697374657265640000000000000000000000006000830152602082019050919050565b600061219d6020836125cf565b91507f4f776e61626c653a2063616c6c6572206973206e6f7420746865206f776e65726000830152602082019050919050565b60006121dd600c836125cf565b91507f496e76616c6964205374657000000000000000000000000000000000000000006000830152602082019050919050565b600061221d6010836125cf565b91507f496e76616c69642070726f706f73616c000000000000000000000000000000006000830152602082019050919050565b600061225d6012836125cf565b91507f566f746520616c72656164792074616b656e00000000000000000000000000006000830152602082019050919050565b61229981612664565b82525050565b60006122ab8284611f7a565b915081905092915050565b60006122c28284611fab565b915081905092915050565b60006020820190506122e26000830184611e75565b92915050565b60006040820190506122fd6000830185611e75565b61230a6020830184612290565b9392505050565b6000602082019050818103600083015261232b8184611e84565b905092915050565b60006020820190506123486000830184611ef9565b92915050565b60006040820190506123636000830185611ef9565b6123706020830184611ef9565b9392505050565b600060208201905081810360008301526123918184611f41565b905092915050565b600060408201905081810360008301526123b38185611f41565b90506123c26020830184612290565b9392505050565b600060208201905081810360008301526123e28161202a565b9050919050565b6000602082019050818103600083015261240281612090565b9050919050565b60006020820190508181036000830152612422816120d0565b9050919050565b6000602082019050818103600083015261244281612110565b9050919050565b6000602082019050818103600083015261246281612150565b9050919050565b6000602082019050818103600083015261248281612190565b9050919050565b600060208201905081810360008301526124a2816121d0565b9050919050565b600060208201905081810360008301526124c281612210565b9050919050565b600060208201905081810360008301526124e281612250565b9050919050565b60006020820190506124fe6000830184612290565b92915050565b6000604051905081810181811067ffffffffffffffff8211171561252b5761252a6127ca565b5b8060405250919050565b600067ffffffffffffffff8211156125505761254f6127ca565b5b601f19601f8301169050602081019050919050565b6000819050602082019050919050565b60008190508160005260206000209050919050565b600081519050919050565b600081519050919050565b6000602082019050919050565b600082825260208201905092915050565b600082825260208201905092915050565b600082825260208201905092915050565b600081905092915050565b60006125f682612664565b915061260183612664565b9250828210156126145761261361273d565b5b828203905092915050565b600061262a82612644565b9050919050565b600081905061263f8261280a565b919050565b600073ffffffffffffffffffffffffffffffffffffffff82169050919050565b6000819050919050565b600061267982612631565b9050919050565b82818337600083830152505050565b60005b838110156126ad578082015181840152602081019050612692565b838111156126bc576000848401525b50505050565b600060028204905060018216806126da57607f821691505b602082108114156126ee576126ed61279b565b5b50919050565b60006126ff82612664565b91507fffffffffffffffffffffffffffffffffffffffffffffffffffffffffffffffff8214156127325761273161273d565b5b600182019050919050565b7f4e487b7100000000000000000000000000000000000000000000000000000000600052601160045260246000fd5b7f4e487b7100000000000000000000000000000000000000000000000000000000600052602160045260246000fd5b7f4e487b7100000000000000000000000000000000000000000000000000000000600052602260045260246000fd5b7f4e487b7100000000000000000000000000000000000000000000000000000000600052604160045260246000fd5b6000601f19601f8301169050919050565b6006811061281b5761281a61276c565b5b50565b6128278161261f565b811461283257600080fd5b50565b61283e81612664565b811461284957600080fd5b5056fea26469706673582212208b8fda15f5295e3ba87303abadaf64eb6b206d87b2fd8f436aac9a406807752d64736f6c63430008000033",
  "immutableReferences": {},
  "source": "// SPDX-License-Identifier: GPL-3.0\npragma solidity 0.8.0;\n\nimport \"./Ownable.sol\";\n\ncontract Voting is Ownable {\n    struct Voter {\n        bool isRegistered;\n        bool hasVoted;\n        uint votedProposalId;\n    }\n\n    struct Proposal {\n        string description;\n        uint voteCount;\n    }\n    \n    enum WorkflowStatus {\n        RegisteringVoters,\n        ProposalsRegistrationStarted,\n        ProposalsRegistrationEnded,\n        VotingSessionStarted,\n        VotingSessionEnded,\n        VotesTallied\n    }\n    \n    event VoterRegistered(address voterAddress);\n    event ProposalsRegistrationStarted();\n    event ProposalsRegistrationEnded();\n    event ProposalRegistered(uint proposalId);\n    event VotingSessionStarted();\n    event VotingSessionEnded();\n    event Voted (address voter, uint proposalId);\n    event VotesTallied();\n    event WorkflowStatusChange(WorkflowStatus previousStatus, WorkflowStatus newStatus);\n    \n    uint private winningProposalId;\n    uint numberProposals;\n    mapping(address => Voter) voters;\n    string[] proposalsIndex;\n    mapping(string => Proposal) public proposals;\n    WorkflowStatus private status;\n    \n    modifier checkStatus(WorkflowStatus _status) {\n        require(status == _status, \"Invalid Step\");\n        _;\n    }\n    \n    function uint2str(uint _i) internal pure returns (string memory _uintAsString) {\n        if (_i == 0) {\n            return \"0\";\n        }\n        uint j = _i;\n        uint len;\n        while (j != 0) {\n            len++;\n            j /= 10;\n        }\n        bytes memory bstr = new bytes(len);\n        uint k = len;\n        while (_i != 0) {\n            k = k-1;\n            uint8 temp = (48 + uint8(_i - _i / 10 * 10));\n            bytes1 b1 = bytes1(temp);\n            bstr[k] = b1;\n            _i /= 10;\n        }\n        return string(bstr);\n    }\n    \n    function getStatus() public view returns(WorkflowStatus) {\n        return status;\n    }\n    \n    function changeStatus(WorkflowStatus _status) internal onlyOwner {\n        status = _status;\n        emit WorkflowStatusChange(status, _status);\n    }\n    \n    function voterRegister(address _voter) public onlyOwner checkStatus(WorkflowStatus.RegisteringVoters) {\n        require(voters[_voter].isRegistered == false, \"Already Registered\");\n        voters[_voter].isRegistered = true;\n        emit VoterRegistered(_voter);\n    }\n    \n    function proposalsRegistrationStart() public onlyOwner checkStatus(WorkflowStatus.RegisteringVoters) {\n        changeStatus(WorkflowStatus.ProposalsRegistrationStarted);\n        emit ProposalsRegistrationStarted();\n    }\n    \n    function proposalRegister(string memory _description) public checkStatus(WorkflowStatus.ProposalsRegistrationStarted) {\n        require(voters[msg.sender].isRegistered == true, \"Voter not Registered\");\n        //proposals.push(Proposal(_description, 0));\n        proposalsIndex.push(_description);\n        numberProposals++;\n        proposals[_description] = Proposal(_description, 0);\n        emit ProposalRegistered(numberProposals);\n    }\n    \n    function proposalsRegistrationEnd() public onlyOwner checkStatus(WorkflowStatus.ProposalsRegistrationStarted) {\n        require(numberProposals > 1, \"We need more proposals\");\n        changeStatus(WorkflowStatus.ProposalsRegistrationEnded);\n        emit ProposalsRegistrationEnded();\n    }\n    \n    function getAllDescription() public view returns(string[] memory) {\n        require(status > WorkflowStatus.ProposalsRegistrationStarted, \"Invalid Step\");\n        return proposalsIndex;\n    }\n    \n    function votingSessionStart() public onlyOwner checkStatus(WorkflowStatus.ProposalsRegistrationEnded) {\n        changeStatus(WorkflowStatus.VotingSessionStarted);\n        emit VotingSessionStarted();\n    }\n    \n    function vote(uint _proposalId) public checkStatus(WorkflowStatus.VotingSessionStarted) {\n        require(voters[msg.sender].isRegistered == true, \"Voter not Registered\");\n        require(voters[msg.sender].hasVoted == false, \"Vote already taken\");\n        require(_proposalId <= numberProposals - 1, \"Invalid proposal\");\n        voters[msg.sender].hasVoted = true;\n        voters[msg.sender].votedProposalId = _proposalId;\n        proposals[proposalsIndex[_proposalId]].voteCount++;\n        emit Voted(msg.sender, _proposalId);\n    }\n    \n    function votingSessionEnd() public onlyOwner checkStatus(WorkflowStatus.VotingSessionStarted) {\n        changeStatus(WorkflowStatus.VotingSessionEnded);\n        emit VotingSessionEnded();\n    }\n    \n    /*\n    *   @notice: Counts all the votes and defines the winning proposal\n    *   @return The winning ID proposal\n    */\n    function defineWinner() public onlyOwner checkStatus(WorkflowStatus.VotingSessionEnded) returns(uint) {\n        require(numberProposals > 0, \"Error, no proposal\");\n        for (uint i = 0; i < numberProposals; i++) {\n            if ( proposals[proposalsIndex[winningProposalId]].voteCount < proposals[proposalsIndex[i]].voteCount)\n                winningProposalId = i;\n        }\n        changeStatus(WorkflowStatus.VotesTallied);\n        emit VotesTallied();\n        return winningProposalId;\n    }\n\n    function getWinner() public view checkStatus(WorkflowStatus.VotesTallied) returns(string memory) {\n        return string(proposals[proposalsIndex[winningProposalId]].description);\n    }\n    \n    function whoDidYouVoteFor(address _address) public view checkStatus(WorkflowStatus.VotesTallied) returns(uint) {\n        return voters[_address].votedProposalId;\n    }\n}",
  "sourcePath": "/home/keymon/Work/dApp/voting/contracts/Voting.sol",
  "compiler": {
    "name": "solc",
    "version": "0.8.0+commit.c7dfd78e.Emscripten.clang"
  },
  "schemaVersion": "3.4.1",
  "updatedAt": "2021-06-25T16:12:18.027Z",
  "networkType": "ethereum",
  "devdoc": {
    "kind": "dev",
    "methods": {
      "owner()": {
        "details": "Returns the address of the current owner."
      },
      "renounceOwnership()": {
        "details": "Leaves the contract without owner. It will not be possible to call `onlyOwner` functions anymore. Can only be called by the current owner. NOTE: Renouncing ownership will leave the contract without an owner, thereby removing any functionality that is only available to the owner."
      },
      "transferOwnership(address)": {
        "details": "Transfers ownership of the contract to a new account (`newOwner`). Can only be called by the current owner."
      }
    },
    "version": 1
  },
  "userdoc": {
    "kind": "user",
    "methods": {},
    "version": 1
  }
}