{
  "contractName": "Voting",
  "abi": [
    {
      "anonymous": false,
      "inputs": [
        {
          "indexed": true,
          "internalType": "address",
          "name": "previousOwner",
          "type": "address"
        },
        {
          "indexed": true,
          "internalType": "address",
          "name": "newOwner",
          "type": "address"
        }
      ],
      "name": "OwnershipTransferred",
      "type": "event"
    },
    {
      "anonymous": false,
      "inputs": [
        {
          "indexed": false,
          "internalType": "uint256",
          "name": "proposalId",
          "type": "uint256"
        }
      ],
      "name": "ProposalRegistered",
      "type": "event"
    },
    {
      "anonymous": false,
      "inputs": [],
      "name": "ProposalsRegistrationEnded",
      "type": "event"
    },
    {
      "anonymous": false,
      "inputs": [],
      "name": "ProposalsRegistrationStarted",
      "type": "event"
    },
    {
      "anonymous": false,
      "inputs": [
        {
          "indexed": false,
          "internalType": "address",
          "name": "voter",
          "type": "address"
        },
        {
          "indexed": false,
          "internalType": "uint256",
          "name": "proposalId",
          "type": "uint256"
        }
      ],
      "name": "Voted",
      "type": "event"
    },
    {
      "anonymous": false,
      "inputs": [
        {
          "indexed": false,
          "internalType": "address",
          "name": "voterAddress",
          "type": "address"
        }
      ],
      "name": "VoterRegistered",
      "type": "event"
    },
    {
      "anonymous": false,
      "inputs": [],
      "name": "VotesTallied",
      "type": "event"
    },
    {
      "anonymous": false,
      "inputs": [],
      "name": "VotingSessionEnded",
      "type": "event"
    },
    {
      "anonymous": false,
      "inputs": [],
      "name": "VotingSessionStarted",
      "type": "event"
    },
    {
      "anonymous": false,
      "inputs": [
        {
          "indexed": false,
          "internalType": "enum Voting.WorkflowStatus",
          "name": "previousStatus",
          "type": "uint8"
        },
        {
          "indexed": false,
          "internalType": "enum Voting.WorkflowStatus",
          "name": "newStatus",
          "type": "uint8"
        }
      ],
      "name": "WorkflowStatusChange",
      "type": "event"
    },
    {
      "inputs": [],
      "name": "owner",
      "outputs": [
        {
          "internalType": "address",
          "name": "",
          "type": "address"
        }
      ],
      "stateMutability": "view",
      "type": "function",
      "constant": true
    },
    {
      "inputs": [
        {
          "internalType": "string",
          "name": "",
          "type": "string"
        }
      ],
      "name": "proposals",
      "outputs": [
        {
          "internalType": "string",
          "name": "description",
          "type": "string"
        },
        {
          "internalType": "uint256",
          "name": "voteCount",
          "type": "uint256"
        }
      ],
      "stateMutability": "view",
      "type": "function",
      "constant": true
    },
    {
      "inputs": [],
      "name": "renounceOwnership",
      "outputs": [],
      "stateMutability": "nonpayable",
      "type": "function"
    },
    {
      "inputs": [
        {
          "internalType": "address",
          "name": "newOwner",
          "type": "address"
        }
      ],
      "name": "transferOwnership",
      "outputs": [],
      "stateMutability": "nonpayable",
      "type": "function"
    },
    {
      "inputs": [],
      "name": "getStatus",
      "outputs": [
        {
          "internalType": "enum Voting.WorkflowStatus",
          "name": "",
          "type": "uint8"
        }
      ],
      "stateMutability": "view",
      "type": "function",
      "constant": true
    },
    {
      "inputs": [
        {
          "internalType": "address",
          "name": "_voter",
          "type": "address"
        }
      ],
      "name": "voterRegister",
      "outputs": [],
      "stateMutability": "nonpayable",
      "type": "function"
    },
    {
      "inputs": [
        {
          "internalType": "address",
          "name": "_address",
          "type": "address"
        }
      ],
      "name": "isRegistered",
      "outputs": [
        {
          "internalType": "bool",
          "name": "",
          "type": "bool"
        }
      ],
      "stateMutability": "view",
      "type": "function",
      "constant": true
    },
    {
      "inputs": [],
      "name": "proposalsRegistrationStart",
      "outputs": [],
      "stateMutability": "nonpayable",
      "type": "function"
    },
    {
      "inputs": [
        {
          "internalType": "string",
          "name": "_description",
          "type": "string"
        }
      ],
      "name": "proposalRegister",
      "outputs": [],
      "stateMutability": "nonpayable",
      "type": "function"
    },
    {
      "inputs": [],
      "name": "proposalsRegistrationEnd",
      "outputs": [],
      "stateMutability": "nonpayable",
      "type": "function"
    },
    {
      "inputs": [],
      "name": "getAllDescription",
      "outputs": [
        {
          "internalType": "string[]",
          "name": "",
          "type": "string[]"
        }
      ],
      "stateMutability": "view",
      "type": "function",
      "constant": true
    },
    {
      "inputs": [],
      "name": "votingSessionStart",
      "outputs": [],
      "stateMutability": "nonpayable",
      "type": "function"
    },
    {
      "inputs": [
        {
          "internalType": "uint256",
          "name": "_proposalId",
          "type": "uint256"
        }
      ],
      "name": "vote",
      "outputs": [],
      "stateMutability": "nonpayable",
      "type": "function"
    },
    {
      "inputs": [
        {
          "internalType": "address",
          "name": "_address",
          "type": "address"
        }
      ],
      "name": "whoDidYouVoteFor",
      "outputs": [
        {
          "internalType": "uint256",
          "name": "",
          "type": "uint256"
        }
      ],
      "stateMutability": "view",
      "type": "function",
      "constant": true
    },
    {
      "inputs": [],
      "name": "votingSessionEnd",
      "outputs": [],
      "stateMutability": "nonpayable",
      "type": "function"
    },
    {
      "inputs": [],
      "name": "defineWinner",
      "outputs": [
        {
          "internalType": "uint256",
          "name": "",
          "type": "uint256"
        }
      ],
      "stateMutability": "nonpayable",
      "type": "function"
    },
    {
      "inputs": [],
      "name": "getWinner",
      "outputs": [
        {
          "internalType": "string",
          "name": "",
          "type": "string"
        }
      ],
      "stateMutability": "view",
      "type": "function",
      "constant": true
    }
  ],
  "bytecode": "0x60806040523480156200001157600080fd5b5062000032620000266200003860201b60201c565b6200004060201b60201c565b62000104565b600033905090565b60008060009054906101000a900473ffffffffffffffffffffffffffffffffffffffff169050816000806101000a81548173ffffffffffffffffffffffffffffffffffffffff021916908373ffffffffffffffffffffffffffffffffffffffff1602179055508173ffffffffffffffffffffffffffffffffffffffff168173ffffffffffffffffffffffffffffffffffffffff167f8be0079c531659141344cd1fd0a4f28419497f9722a3daafe3b4186f6b6457e060405160405180910390a35050565b612b6480620001146000396000f3fe608060405234801561001057600080fd5b506004361061010b5760003560e01c8063af154087116100a2578063c6b6fad211610071578063c6b6fad214610246578063cba1b31114610264578063ec7fec8b1461026e578063f2fde38b1461028c578063ffa0d2a4146102a85761010b565b8063af154087146101d4578063b20cd9d0146101f0578063c143bb2d146101fa578063c3c5a547146102165761010b565b80638da5cb5b116100de5780638da5cb5b1461015e5780638e7ea5b21461017c5780639ead29c51461019a578063aa64547c146101ca5761010b565b80630121b93f146101105780632bf08b0b1461012c5780634e69d56014610136578063715018a614610154575b600080fd5b61012a60048036038101906101259190612024565b6102d9565b005b610134610672565b005b61013e6107ea565b60405161014b91906125c9565b60405180910390f35b61015c610801565b005b610166610889565b6040516101739190612548565b60405180910390f35b6101846108b2565b604051610191919061260d565b60405180910390f35b6101b460048036038101906101af9190611fba565b610a6c565b6040516101c191906127bf565b60405180910390f35b6101d2610ca8565b005b6101ee60048036038101906101e99190611fba565b610e20565b005b6101f861108b565b005b610214600480360381019061020f9190611fe3565b611203565b005b610230600480360381019061022b9190611fba565b6114bb565b60405161023d91906125ae565b60405180910390f35b61024e611514565b60405161025b919061258c565b60405180910390f35b61026c6116b0565b005b61027661186d565b60405161028391906127bf565b60405180910390f35b6102a660048036038101906102a19190611fba565b611ae8565b005b6102c260048036038101906102bd9190611fe3565b611be0565b6040516102d092919061262f565b60405180910390f35b6003806005811115610314577f4e487b7100000000000000000000000000000000000000000000000000000000600052602160045260246000fd5b600660009054906101000a900460ff16600581111561035c577f4e487b7100000000000000000000000000000000000000000000000000000000600052602160045260246000fd5b1461039c576040517f08c379a00000000000000000000000000000000000000000000000000000000081526004016103939061273f565b60405180910390fd5b60011515600360003373ffffffffffffffffffffffffffffffffffffffff1673ffffffffffffffffffffffffffffffffffffffff16815260200190815260200160002060000160009054906101000a900460ff16151514610432576040517f08c379a0000000000000000000000000000000000000000000000000000000008152600401610429906126ff565b60405180910390fd5b60001515600360003373ffffffffffffffffffffffffffffffffffffffff1673ffffffffffffffffffffffffffffffffffffffff16815260200190815260200160002060000160019054906101000a900460ff161515146104c8576040517f08c379a00000000000000000000000000000000000000000000000000000000081526004016104bf9061277f565b60405180910390fd5b60016002546104d791906128c1565b821115610519576040517f08c379a00000000000000000000000000000000000000000000000000000000081526004016105109061275f565b60405180910390fd5b6001600360003373ffffffffffffffffffffffffffffffffffffffff1673ffffffffffffffffffffffffffffffffffffffff16815260200190815260200160002060000160016101000a81548160ff02191690831515021790555081600360003373ffffffffffffffffffffffffffffffffffffffff1673ffffffffffffffffffffffffffffffffffffffff168152602001908152602001600020600101819055506005600483815481106105f7577f4e487b7100000000000000000000000000000000000000000000000000000000600052603260045260246000fd5b9060005260206000200160405161060e9190612531565b90815260200160405180910390206001016000815480929190610630906129d6565b91905055507f4d99b957a2bc29a30ebd96a7be8e68fe50a3c701db28a91436490b7d53870ca43383604051610666929190612563565b60405180910390a15050565b61067a611ca2565b73ffffffffffffffffffffffffffffffffffffffff16610698610889565b73ffffffffffffffffffffffffffffffffffffffff16146106ee576040517f08c379a00000000000000000000000000000000000000000000000000000000081526004016106e59061271f565b60405180910390fd5b6003806005811115610729577f4e487b7100000000000000000000000000000000000000000000000000000000600052602160045260246000fd5b600660009054906101000a900460ff166005811115610771577f4e487b7100000000000000000000000000000000000000000000000000000000600052602160045260246000fd5b146107b1576040517f08c379a00000000000000000000000000000000000000000000000000000000081526004016107a89061273f565b60405180910390fd5b6107bb6004611caa565b7fc379d349a6301baf50fb2f98d829f4ae10b1cdb7c66f4e4d8117302df7b8cd4c60405160405180910390a150565b6000600660009054906101000a900460ff16905090565b610809611ca2565b73ffffffffffffffffffffffffffffffffffffffff16610827610889565b73ffffffffffffffffffffffffffffffffffffffff161461087d576040517f08c379a00000000000000000000000000000000000000000000000000000000081526004016108749061271f565b60405180910390fd5b6108876000611dc1565b565b60008060009054906101000a900473ffffffffffffffffffffffffffffffffffffffff16905090565b606060058060058111156108ef577f4e487b7100000000000000000000000000000000000000000000000000000000600052602160045260246000fd5b600660009054906101000a900460ff166005811115610937577f4e487b7100000000000000000000000000000000000000000000000000000000600052602160045260246000fd5b14610977576040517f08c379a000000000000000000000000000000000000000000000000000000000815260040161096e9061273f565b60405180910390fd5b60056004600154815481106109b5577f4e487b7100000000000000000000000000000000000000000000000000000000600052603260045260246000fd5b906000526020600020016040516109cc9190612531565b908152602001604051809103902060000180546109e8906129a4565b80601f0160208091040260200160405190810160405280929190818152602001828054610a14906129a4565b8015610a615780601f10610a3657610100808354040283529160200191610a61565b820191906000526020600020905b815481529060010190602001808311610a4457829003601f168201915b505050505091505090565b60006003806005811115610aa9577f4e487b7100000000000000000000000000000000000000000000000000000000600052602160045260246000fd5b600660009054906101000a900460ff166005811115610af1577f4e487b7100000000000000000000000000000000000000000000000000000000600052602160045260246000fd5b14610b31576040517f08c379a0000000000000000000000000000000000000000000000000000000008152600401610b289061273f565b60405180910390fd5b60011515600360008573ffffffffffffffffffffffffffffffffffffffff1673ffffffffffffffffffffffffffffffffffffffff16815260200190815260200160002060000160009054906101000a900460ff16151514610bc7576040517f08c379a0000000000000000000000000000000000000000000000000000000008152600401610bbe9061267f565b60405180910390fd5b60011515600360008573ffffffffffffffffffffffffffffffffffffffff1673ffffffffffffffffffffffffffffffffffffffff16815260200190815260200160002060000160019054906101000a900460ff16151514610c5d576040517f08c379a0000000000000000000000000000000000000000000000000000000008152600401610c549061279f565b60405180910390fd5b600360008473ffffffffffffffffffffffffffffffffffffffff1673ffffffffffffffffffffffffffffffffffffffff16815260200190815260200160002060010154915050919050565b610cb0611ca2565b73ffffffffffffffffffffffffffffffffffffffff16610cce610889565b73ffffffffffffffffffffffffffffffffffffffff1614610d24576040517f08c379a0000000000000000000000000000000000000000000000000000000008152600401610d1b9061271f565b60405180910390fd5b6000806005811115610d5f577f4e487b7100000000000000000000000000000000000000000000000000000000600052602160045260246000fd5b600660009054906101000a900460ff166005811115610da7577f4e487b7100000000000000000000000000000000000000000000000000000000600052602160045260246000fd5b14610de7576040517f08c379a0000000000000000000000000000000000000000000000000000000008152600401610dde9061273f565b60405180910390fd5b610df16001611caa565b7f344c25562921d075a298d34b6dd1fd00d36ff293974539dfd4a8c625d9f0064c60405160405180910390a150565b610e28611ca2565b73ffffffffffffffffffffffffffffffffffffffff16610e46610889565b73ffffffffffffffffffffffffffffffffffffffff1614610e9c576040517f08c379a0000000000000000000000000000000000000000000000000000000008152600401610e939061271f565b60405180910390fd5b6000806005811115610ed7577f4e487b7100000000000000000000000000000000000000000000000000000000600052602160045260246000fd5b600660009054906101000a900460ff166005811115610f1f577f4e487b7100000000000000000000000000000000000000000000000000000000600052602160045260246000fd5b14610f5f576040517f08c379a0000000000000000000000000000000000000000000000000000000008152600401610f569061273f565b60405180910390fd5b60001515600360008473ffffffffffffffffffffffffffffffffffffffff1673ffffffffffffffffffffffffffffffffffffffff16815260200190815260200160002060000160009054906101000a900460ff16151514610ff5576040517f08c379a0000000000000000000000000000000000000000000000000000000008152600401610fec906126df565b60405180910390fd5b6001600360008473ffffffffffffffffffffffffffffffffffffffff1673ffffffffffffffffffffffffffffffffffffffff16815260200190815260200160002060000160006101000a81548160ff0219169083151502179055507fb6be2187d059cc2a55fe29e0e503b566e1e0f8c8780096e185429350acffd3dd8260405161107f9190612548565b60405180910390a15050565b611093611ca2565b73ffffffffffffffffffffffffffffffffffffffff166110b1610889565b73ffffffffffffffffffffffffffffffffffffffff1614611107576040517f08c379a00000000000000000000000000000000000000000000000000000000081526004016110fe9061271f565b60405180910390fd5b6002806005811115611142577f4e487b7100000000000000000000000000000000000000000000000000000000600052602160045260246000fd5b600660009054906101000a900460ff16600581111561118a577f4e487b7100000000000000000000000000000000000000000000000000000000600052602160045260246000fd5b146111ca576040517f08c379a00000000000000000000000000000000000000000000000000000000081526004016111c19061273f565b60405180910390fd5b6111d46003611caa565b7f1b8e19a458c1bcd88553332c518cc5c4e2d5793e712ee766d4f1c14f672ef1f560405160405180910390a150565b600180600581111561123e577f4e487b7100000000000000000000000000000000000000000000000000000000600052602160045260246000fd5b600660009054906101000a900460ff166005811115611286577f4e487b7100000000000000000000000000000000000000000000000000000000600052602160045260246000fd5b146112c6576040517f08c379a00000000000000000000000000000000000000000000000000000000081526004016112bd9061273f565b60405180910390fd5b60011515600360003373ffffffffffffffffffffffffffffffffffffffff1673ffffffffffffffffffffffffffffffffffffffff16815260200190815260200160002060000160009054906101000a900460ff1615151461135c576040517f08c379a0000000000000000000000000000000000000000000000000000000008152600401611353906126ff565b60405180910390fd5b600060058360405161136e919061251a565b9081526020016040518091039020600001805461138a906129a4565b9050146113cc576040517f08c379a00000000000000000000000000000000000000000000000000000000081526004016113c39061269f565b60405180910390fd5b600482908060018154018082558091505060019003906000526020600020016000909190919091509080519060200190611407929190611e85565b506040518060400160405280838152602001600081525060058360405161142e919061251a565b90815260200160405180910390206000820151816000019080519060200190611458929190611e85565b50602082015181600101559050507f92e393e9b54e2f801d3ea4beb0c5e71a21cc34a5d34b77d0fb8a3aa1650dc18f60025460405161149791906127bf565b60405180910390a1600260008154809291906114b2906129d6565b91905055505050565b6000600360008373ffffffffffffffffffffffffffffffffffffffff1673ffffffffffffffffffffffffffffffffffffffff16815260200190815260200160002060000160009054906101000a900460ff169050919050565b606060016005811115611550577f4e487b7100000000000000000000000000000000000000000000000000000000600052602160045260246000fd5b600660009054906101000a900460ff166005811115611598577f4e487b7100000000000000000000000000000000000000000000000000000000600052602160045260246000fd5b10156115d9576040517f08c379a00000000000000000000000000000000000000000000000000000000081526004016115d09061273f565b60405180910390fd5b6004805480602002602001604051908101604052809291908181526020016000905b828210156116a757838290600052602060002001805461161a906129a4565b80601f0160208091040260200160405190810160405280929190818152602001828054611646906129a4565b80156116935780601f1061166857610100808354040283529160200191611693565b820191906000526020600020905b81548152906001019060200180831161167657829003601f168201915b5050505050815260200190600101906115fb565b50505050905090565b6116b8611ca2565b73ffffffffffffffffffffffffffffffffffffffff166116d6610889565b73ffffffffffffffffffffffffffffffffffffffff161461172c576040517f08c379a00000000000000000000000000000000000000000000000000000000081526004016117239061271f565b60405180910390fd5b6001806005811115611767577f4e487b7100000000000000000000000000000000000000000000000000000000600052602160045260246000fd5b600660009054906101000a900460ff1660058111156117af577f4e487b7100000000000000000000000000000000000000000000000000000000600052602160045260246000fd5b146117ef576040517f08c379a00000000000000000000000000000000000000000000000000000000081526004016117e69061273f565b60405180910390fd5b600160025411611834576040517f08c379a000000000000000000000000000000000000000000000000000000000815260040161182b906126bf565b60405180910390fd5b61183e6002611caa565b7f240cb87b2e4df4c318e72bd714d45a9cad60249e883ff56b1fffd83a4595a8fa60405160405180910390a150565b6000611877611ca2565b73ffffffffffffffffffffffffffffffffffffffff16611895610889565b73ffffffffffffffffffffffffffffffffffffffff16146118eb576040517f08c379a00000000000000000000000000000000000000000000000000000000081526004016118e29061271f565b60405180910390fd5b6004806005811115611926577f4e487b7100000000000000000000000000000000000000000000000000000000600052602160045260246000fd5b600660009054906101000a900460ff16600581111561196e577f4e487b7100000000000000000000000000000000000000000000000000000000600052602160045260246000fd5b146119ae576040517f08c379a00000000000000000000000000000000000000000000000000000000081526004016119a59061273f565b60405180910390fd5b60005b600254811015611aa8576005600482815481106119f7577f4e487b7100000000000000000000000000000000000000000000000000000000600052603260045260246000fd5b90600052602060002001604051611a0e9190612531565b9081526020016040518091039020600101546005600460015481548110611a5e577f4e487b7100000000000000000000000000000000000000000000000000000000600052603260045260246000fd5b90600052602060002001604051611a759190612531565b9081526020016040518091039020600101541015611a9557806001819055505b8080611aa0906129d6565b9150506119b1565b50611ab36005611caa565b7f0e5e95ff8725ab3e7a4b6b59998a4c344c2aa8d1485f5e60cb7f337768e6134760405160405180910390a160015491505090565b611af0611ca2565b73ffffffffffffffffffffffffffffffffffffffff16611b0e610889565b73ffffffffffffffffffffffffffffffffffffffff1614611b64576040517f08c379a0000000000000000000000000000000000000000000000000000000008152600401611b5b9061271f565b60405180910390fd5b600073ffffffffffffffffffffffffffffffffffffffff168173ffffffffffffffffffffffffffffffffffffffff161415611bd4576040517f08c379a0000000000000000000000000000000000000000000000000000000008152600401611bcb9061265f565b60405180910390fd5b611bdd81611dc1565b50565b600581805160208101820180518482526020830160208501208183528095505050505050600091509050806000018054611c19906129a4565b80601f0160208091040260200160405190810160405280929190818152602001828054611c45906129a4565b8015611c925780601f10611c6757610100808354040283529160200191611c92565b820191906000526020600020905b815481529060010190602001808311611c7557829003601f168201915b5050505050908060010154905082565b600033905090565b611cb2611ca2565b73ffffffffffffffffffffffffffffffffffffffff16611cd0610889565b73ffffffffffffffffffffffffffffffffffffffff1614611d26576040517f08c379a0000000000000000000000000000000000000000000000000000000008152600401611d1d9061271f565b60405180910390fd5b7f0a97a4ee45751e2abf3e4fc8946939630b11b371ea8ae39ccdc3056e98f5cc3f600660009054906101000a900460ff1682604051611d669291906125e4565b60405180910390a180600660006101000a81548160ff02191690836005811115611db9577f4e487b7100000000000000000000000000000000000000000000000000000000600052602160045260246000fd5b021790555050565b60008060009054906101000a900473ffffffffffffffffffffffffffffffffffffffff169050816000806101000a81548173ffffffffffffffffffffffffffffffffffffffff021916908373ffffffffffffffffffffffffffffffffffffffff1602179055508173ffffffffffffffffffffffffffffffffffffffff168173ffffffffffffffffffffffffffffffffffffffff167f8be0079c531659141344cd1fd0a4f28419497f9722a3daafe3b4186f6b6457e060405160405180910390a35050565b828054611e91906129a4565b90600052602060002090601f016020900481019282611eb35760008555611efa565b82601f10611ecc57805160ff1916838001178555611efa565b82800160010185558215611efa579182015b82811115611ef9578251825591602001919060010190611ede565b5b509050611f079190611f0b565b5090565b5b80821115611f24576000816000905550600101611f0c565b5090565b6000611f3b611f368461280b565b6127da565b905082815260208101848484011115611f5357600080fd5b611f5e848285612962565b509392505050565b600081359050611f7581612b00565b92915050565b600082601f830112611f8c57600080fd5b8135611f9c848260208601611f28565b91505092915050565b600081359050611fb481612b17565b92915050565b600060208284031215611fcc57600080fd5b6000611fda84828501611f66565b91505092915050565b600060208284031215611ff557600080fd5b600082013567ffffffffffffffff81111561200f57600080fd5b61201b84828501611f7b565b91505092915050565b60006020828403121561203657600080fd5b600061204484828501611fa5565b91505092915050565b60006120598383612103565b905092915050565b61206a816128f5565b82525050565b600061207b82612860565b6120858185612883565b9350836020820285016120978561283b565b8060005b858110156120d357848403895281516120b4858261204d565b94506120bf83612876565b925060208a0199505060018101905061209b565b50829750879550505050505092915050565b6120ee81612907565b82525050565b6120fd81612950565b82525050565b600061210e8261286b565b6121188185612894565b9350612128818560208601612971565b61213181612adb565b840191505092915050565b60006121478261286b565b61215181856128a5565b9350612161818560208601612971565b61216a81612adb565b840191505092915050565b60006121808261286b565b61218a81856128b6565b935061219a818560208601612971565b80840191505092915050565b600081546121b3816129a4565b6121bd81866128b6565b945060018216600081146121d857600181146121e95761221c565b60ff1983168652818601935061221c565b6121f28561284b565b60005b83811015612214578154818901526001820191506020810190506121f5565b838801955050505b50505092915050565b60006122326026836128a5565b91507f4f776e61626c653a206e6577206f776e657220697320746865207a65726f206160008301527f64647265737300000000000000000000000000000000000000000000000000006020830152604082019050919050565b6000612298600e836128a5565b91507f4e6f7420526567697374657265640000000000000000000000000000000000006000830152602082019050919050565b60006122d8601b836128a5565b91507f50726f706f73616c20416c7265616479205265676973746572656400000000006000830152602082019050919050565b60006123186016836128a5565b91507f5765206e656564206d6f72652070726f706f73616c73000000000000000000006000830152602082019050919050565b60006123586012836128a5565b91507f416c7265616479205265676973746572656400000000000000000000000000006000830152602082019050919050565b60006123986014836128a5565b91507f566f746572206e6f7420526567697374657265640000000000000000000000006000830152602082019050919050565b60006123d86020836128a5565b91507f4f776e61626c653a2063616c6c6572206973206e6f7420746865206f776e65726000830152602082019050919050565b6000612418600c836128a5565b91507f496e76616c6964205374657000000000000000000000000000000000000000006000830152602082019050919050565b60006124586010836128a5565b91507f496e76616c69642070726f706f73616c000000000000000000000000000000006000830152602082019050919050565b60006124986012836128a5565b91507f566f746520616c72656164792074616b656e00000000000000000000000000006000830152602082019050919050565b60006124d8600c836128a5565b91507f446964204e6f7420566f746500000000000000000000000000000000000000006000830152602082019050919050565b61251481612946565b82525050565b60006125268284612175565b915081905092915050565b600061253d82846121a6565b915081905092915050565b600060208201905061255d6000830184612061565b92915050565b60006040820190506125786000830185612061565b612585602083018461250b565b9392505050565b600060208201905081810360008301526125a68184612070565b905092915050565b60006020820190506125c360008301846120e5565b92915050565b60006020820190506125de60008301846120f4565b92915050565b60006040820190506125f960008301856120f4565b61260660208301846120f4565b9392505050565b60006020820190508181036000830152612627818461213c565b905092915050565b60006040820190508181036000830152612649818561213c565b9050612658602083018461250b565b9392505050565b6000602082019050818103600083015261267881612225565b9050919050565b600060208201905081810360008301526126988161228b565b9050919050565b600060208201905081810360008301526126b8816122cb565b9050919050565b600060208201905081810360008301526126d88161230b565b9050919050565b600060208201905081810360008301526126f88161234b565b9050919050565b600060208201905081810360008301526127188161238b565b9050919050565b60006020820190508181036000830152612738816123cb565b9050919050565b600060208201905081810360008301526127588161240b565b9050919050565b600060208201905081810360008301526127788161244b565b9050919050565b600060208201905081810360008301526127988161248b565b9050919050565b600060208201905081810360008301526127b8816124cb565b9050919050565b60006020820190506127d4600083018461250b565b92915050565b6000604051905081810181811067ffffffffffffffff8211171561280157612800612aac565b5b8060405250919050565b600067ffffffffffffffff82111561282657612825612aac565b5b601f19601f8301169050602081019050919050565b6000819050602082019050919050565b60008190508160005260206000209050919050565b600081519050919050565b600081519050919050565b6000602082019050919050565b600082825260208201905092915050565b600082825260208201905092915050565b600082825260208201905092915050565b600081905092915050565b60006128cc82612946565b91506128d783612946565b9250828210156128ea576128e9612a1f565b5b828203905092915050565b600061290082612926565b9050919050565b60008115159050919050565b600081905061292182612aec565b919050565b600073ffffffffffffffffffffffffffffffffffffffff82169050919050565b6000819050919050565b600061295b82612913565b9050919050565b82818337600083830152505050565b60005b8381101561298f578082015181840152602081019050612974565b8381111561299e576000848401525b50505050565b600060028204905060018216806129bc57607f821691505b602082108114156129d0576129cf612a7d565b5b50919050565b60006129e182612946565b91507fffffffffffffffffffffffffffffffffffffffffffffffffffffffffffffffff821415612a1457612a13612a1f565b5b600182019050919050565b7f4e487b7100000000000000000000000000000000000000000000000000000000600052601160045260246000fd5b7f4e487b7100000000000000000000000000000000000000000000000000000000600052602160045260246000fd5b7f4e487b7100000000000000000000000000000000000000000000000000000000600052602260045260246000fd5b7f4e487b7100000000000000000000000000000000000000000000000000000000600052604160045260246000fd5b6000601f19601f8301169050919050565b60068110612afd57612afc612a4e565b5b50565b612b09816128f5565b8114612b1457600080fd5b50565b612b2081612946565b8114612b2b57600080fd5b5056fea2646970667358221220b6be254742397ceba2a2a27e8cb62cf8c942a95784f56dfd9c427772d38e060264736f6c63430008000033",
  "immutableReferences": {},
  "source": "// SPDX-License-Identifier: GPL-3.0\npragma solidity 0.8.0;\n\nimport \"./Ownable.sol\";\n\ncontract Voting is Ownable {\n    struct Voter {\n        bool isRegistered;\n        bool hasVoted;\n        uint votedProposalId;\n    }\n\n    struct Proposal {\n        string description;\n        uint voteCount;\n    }\n    \n    enum WorkflowStatus {\n        RegisteringVoters,\n        ProposalsRegistrationStarted,\n        ProposalsRegistrationEnded,\n        VotingSessionStarted,\n        VotingSessionEnded,\n        VotesTallied\n    }\n    \n    event VoterRegistered(address voterAddress);\n    event ProposalsRegistrationStarted();\n    event ProposalsRegistrationEnded();\n    event ProposalRegistered(uint proposalId);\n    event VotingSessionStarted();\n    event VotingSessionEnded();\n    event Voted(address voter, uint proposalId);\n    event VotesTallied();\n    event WorkflowStatusChange(WorkflowStatus previousStatus, WorkflowStatus newStatus);\n    \n    uint private winningProposalId;\n    uint numberProposals;\n    mapping(address => Voter) voters;\n    string[] proposalsIndex;\n    mapping(string => Proposal) public proposals;\n    WorkflowStatus private status;\n    \n    modifier checkStatus(WorkflowStatus _status) {\n        require(status == _status, \"Invalid Step\");\n        _;\n    }\n    \n    function uint2str(uint _i) internal pure returns (string memory _uintAsString) {\n        if (_i == 0) {\n            return \"0\";\n        }\n        uint j = _i;\n        uint len;\n        while (j != 0) {\n            len++;\n            j /= 10;\n        }\n        bytes memory bstr = new bytes(len);\n        uint k = len;\n        while (_i != 0) {\n            k = k-1;\n            uint8 temp = (48 + uint8(_i - _i / 10 * 10));\n            bytes1 b1 = bytes1(temp);\n            bstr[k] = b1;\n            _i /= 10;\n        }\n        return string(bstr);\n    }\n    \n    function getStatus() public view returns(WorkflowStatus) {\n        return status;\n    }\n    \n    function changeStatus(WorkflowStatus _status) internal onlyOwner {\n        emit WorkflowStatusChange(status, _status);\n        status = _status;\n    }\n    \n    function voterRegister(address _voter) public onlyOwner checkStatus(WorkflowStatus.RegisteringVoters) {\n        require(voters[_voter].isRegistered == false, \"Already Registered\");\n        voters[_voter].isRegistered = true;\n        emit VoterRegistered(_voter);\n    }\n\n    function isRegistered(address _address) public view returns (bool) {\n        return voters[_address].isRegistered;\n    }\n    \n    function proposalsRegistrationStart() public onlyOwner checkStatus(WorkflowStatus.RegisteringVoters) {\n        changeStatus(WorkflowStatus.ProposalsRegistrationStarted);\n        emit ProposalsRegistrationStarted();\n    }\n    \n    function proposalRegister(string memory _description) public checkStatus(WorkflowStatus.ProposalsRegistrationStarted) {\n        require(voters[msg.sender].isRegistered == true, \"Voter not Registered\");\n        require(bytes(proposals[_description].description).length == 0, \"Proposal Already Registered\");\n        //proposals.push(Proposal(_description, 0));\n        proposalsIndex.push(_description);\n        proposals[_description] = Proposal(_description, 0);\n        emit ProposalRegistered(numberProposals);\n        numberProposals++;\n    }\n    \n    function proposalsRegistrationEnd() public onlyOwner checkStatus(WorkflowStatus.ProposalsRegistrationStarted) {\n        require(numberProposals > 1, \"We need more proposals\");\n        changeStatus(WorkflowStatus.ProposalsRegistrationEnded);\n        emit ProposalsRegistrationEnded();\n    }\n    \n    function getAllDescription() public view returns(string[] memory) {\n        require(status >= WorkflowStatus.ProposalsRegistrationStarted, \"Invalid Step\");\n        return proposalsIndex;\n    }\n    \n    function votingSessionStart() public onlyOwner checkStatus(WorkflowStatus.ProposalsRegistrationEnded) {\n        changeStatus(WorkflowStatus.VotingSessionStarted);\n        emit VotingSessionStarted();\n    }\n    \n    function vote(uint _proposalId) public checkStatus(WorkflowStatus.VotingSessionStarted) {\n        require(voters[msg.sender].isRegistered == true, \"Voter not Registered\");\n        require(voters[msg.sender].hasVoted == false, \"Vote already taken\");\n        require(_proposalId <= numberProposals - 1, \"Invalid proposal\");\n        voters[msg.sender].hasVoted = true;\n        voters[msg.sender].votedProposalId = _proposalId;\n        proposals[proposalsIndex[_proposalId]].voteCount++;\n        emit Voted(msg.sender, _proposalId);\n    }\n\n    function whoDidYouVoteFor(address _address) public view checkStatus(WorkflowStatus.VotingSessionStarted) returns(uint) {\n        require(voters[_address].isRegistered == true, \"Not Registered\");\n        require(voters[_address].hasVoted == true, \"Did Not Vote\");\n        return voters[_address].votedProposalId;\n    }\n    \n    function votingSessionEnd() public onlyOwner checkStatus(WorkflowStatus.VotingSessionStarted) {\n        changeStatus(WorkflowStatus.VotingSessionEnded);\n        emit VotingSessionEnded();\n    }\n    \n    /*\n    *   @notice: Counts all the votes and defines the winning proposal\n    *   @return The winning ID proposal\n    */\n    function defineWinner() public onlyOwner checkStatus(WorkflowStatus.VotingSessionEnded) returns(uint) {\n        for (uint i = 0; i < numberProposals; i++) {\n            if ( proposals[proposalsIndex[winningProposalId]].voteCount < proposals[proposalsIndex[i]].voteCount)\n                winningProposalId = i;\n        }\n        changeStatus(WorkflowStatus.VotesTallied);\n        emit VotesTallied();\n        return winningProposalId;\n    }\n\n    function getWinner() public view checkStatus(WorkflowStatus.VotesTallied) returns(string memory) {\n        return string(proposals[proposalsIndex[winningProposalId]].description);\n    }\n}",
  "sourcePath": "/home/keymon/Work/dApp/voting/contracts/Voting.sol",
  "compiler": {
    "name": "solc",
    "version": "0.8.0+commit.c7dfd78e.Emscripten.clang"
  },
  "schemaVersion": "3.4.1",
  "updatedAt": "2021-06-30T19:25:49.553Z",
  "networkType": "ethereum",
  "devdoc": {
    "kind": "dev",
    "methods": {
      "owner()": {
        "details": "Returns the address of the current owner."
      },
      "renounceOwnership()": {
        "details": "Leaves the contract without owner. It will not be possible to call `onlyOwner` functions anymore. Can only be called by the current owner. NOTE: Renouncing ownership will leave the contract without an owner, thereby removing any functionality that is only available to the owner."
      },
      "transferOwnership(address)": {
        "details": "Transfers ownership of the contract to a new account (`newOwner`). Can only be called by the current owner."
      }
    },
    "version": 1
  },
  "userdoc": {
    "kind": "user",
    "methods": {},
    "version": 1
  }
}