{
  "contractName": "Voting",
  "abi": [
    {
      "anonymous": false,
      "inputs": [
        {
          "indexed": true,
          "internalType": "address",
          "name": "previousOwner",
          "type": "address"
        },
        {
          "indexed": true,
          "internalType": "address",
          "name": "newOwner",
          "type": "address"
        }
      ],
      "name": "OwnershipTransferred",
      "type": "event"
    },
    {
      "anonymous": false,
      "inputs": [
        {
          "indexed": false,
          "internalType": "uint256",
          "name": "proposalId",
          "type": "uint256"
        }
      ],
      "name": "ProposalRegistered",
      "type": "event"
    },
    {
      "anonymous": false,
      "inputs": [],
      "name": "ProposalsRegistrationEnded",
      "type": "event"
    },
    {
      "anonymous": false,
      "inputs": [],
      "name": "ProposalsRegistrationStarted",
      "type": "event"
    },
    {
      "anonymous": false,
      "inputs": [
        {
          "indexed": false,
          "internalType": "address",
          "name": "voter",
          "type": "address"
        },
        {
          "indexed": false,
          "internalType": "uint256",
          "name": "proposalId",
          "type": "uint256"
        }
      ],
      "name": "Voted",
      "type": "event"
    },
    {
      "anonymous": false,
      "inputs": [
        {
          "indexed": false,
          "internalType": "address",
          "name": "voterAddress",
          "type": "address"
        }
      ],
      "name": "VoterRegistered",
      "type": "event"
    },
    {
      "anonymous": false,
      "inputs": [],
      "name": "VotesTallied",
      "type": "event"
    },
    {
      "anonymous": false,
      "inputs": [],
      "name": "VotingSessionEnded",
      "type": "event"
    },
    {
      "anonymous": false,
      "inputs": [],
      "name": "VotingSessionStarted",
      "type": "event"
    },
    {
      "anonymous": false,
      "inputs": [
        {
          "indexed": false,
          "internalType": "enum Voting.WorkflowStatus",
          "name": "previousStatus",
          "type": "uint8"
        },
        {
          "indexed": false,
          "internalType": "enum Voting.WorkflowStatus",
          "name": "newStatus",
          "type": "uint8"
        }
      ],
      "name": "WorkflowStatusChange",
      "type": "event"
    },
    {
      "inputs": [
        {
          "internalType": "uint256",
          "name": "",
          "type": "uint256"
        }
      ],
      "name": "listAddress",
      "outputs": [
        {
          "internalType": "address",
          "name": "",
          "type": "address"
        }
      ],
      "stateMutability": "view",
      "type": "function",
      "constant": true
    },
    {
      "inputs": [],
      "name": "owner",
      "outputs": [
        {
          "internalType": "address",
          "name": "",
          "type": "address"
        }
      ],
      "stateMutability": "view",
      "type": "function",
      "constant": true
    },
    {
      "inputs": [
        {
          "internalType": "string",
          "name": "",
          "type": "string"
        }
      ],
      "name": "proposals",
      "outputs": [
        {
          "internalType": "string",
          "name": "description",
          "type": "string"
        },
        {
          "internalType": "uint256",
          "name": "voteCount",
          "type": "uint256"
        }
      ],
      "stateMutability": "view",
      "type": "function",
      "constant": true
    },
    {
      "inputs": [],
      "name": "renounceOwnership",
      "outputs": [],
      "stateMutability": "nonpayable",
      "type": "function"
    },
    {
      "inputs": [
        {
          "internalType": "address",
          "name": "newOwner",
          "type": "address"
        }
      ],
      "name": "transferOwnership",
      "outputs": [],
      "stateMutability": "nonpayable",
      "type": "function"
    },
    {
      "inputs": [],
      "name": "getStatus",
      "outputs": [
        {
          "internalType": "enum Voting.WorkflowStatus",
          "name": "",
          "type": "uint8"
        }
      ],
      "stateMutability": "view",
      "type": "function",
      "constant": true
    },
    {
      "inputs": [],
      "name": "getAddresses",
      "outputs": [
        {
          "internalType": "address[]",
          "name": "",
          "type": "address[]"
        }
      ],
      "stateMutability": "view",
      "type": "function",
      "constant": true
    },
    {
      "inputs": [
        {
          "internalType": "address",
          "name": "_voter",
          "type": "address"
        }
      ],
      "name": "voterRegister",
      "outputs": [],
      "stateMutability": "nonpayable",
      "type": "function"
    },
    {
      "inputs": [
        {
          "internalType": "address",
          "name": "_address",
          "type": "address"
        }
      ],
      "name": "isRegistered",
      "outputs": [
        {
          "internalType": "bool",
          "name": "",
          "type": "bool"
        }
      ],
      "stateMutability": "view",
      "type": "function",
      "constant": true
    },
    {
      "inputs": [],
      "name": "proposalsRegistrationStart",
      "outputs": [],
      "stateMutability": "nonpayable",
      "type": "function"
    },
    {
      "inputs": [
        {
          "internalType": "string",
          "name": "_description",
          "type": "string"
        }
      ],
      "name": "proposalRegister",
      "outputs": [],
      "stateMutability": "nonpayable",
      "type": "function"
    },
    {
      "inputs": [],
      "name": "proposalsRegistrationEnd",
      "outputs": [],
      "stateMutability": "nonpayable",
      "type": "function"
    },
    {
      "inputs": [],
      "name": "getAllDescription",
      "outputs": [
        {
          "internalType": "string[]",
          "name": "",
          "type": "string[]"
        }
      ],
      "stateMutability": "view",
      "type": "function",
      "constant": true
    },
    {
      "inputs": [],
      "name": "votingSessionStart",
      "outputs": [],
      "stateMutability": "nonpayable",
      "type": "function"
    },
    {
      "inputs": [
        {
          "internalType": "uint256",
          "name": "_proposalId",
          "type": "uint256"
        }
      ],
      "name": "vote",
      "outputs": [],
      "stateMutability": "nonpayable",
      "type": "function"
    },
    {
      "inputs": [
        {
          "internalType": "address",
          "name": "_address",
          "type": "address"
        }
      ],
      "name": "whoDidYouVoteFor",
      "outputs": [
        {
          "internalType": "uint256",
          "name": "",
          "type": "uint256"
        }
      ],
      "stateMutability": "view",
      "type": "function",
      "constant": true
    },
    {
      "inputs": [],
      "name": "votingSessionEnd",
      "outputs": [],
      "stateMutability": "nonpayable",
      "type": "function"
    },
    {
      "inputs": [],
      "name": "defineWinner",
      "outputs": [
        {
          "internalType": "uint256",
          "name": "",
          "type": "uint256"
        }
      ],
      "stateMutability": "nonpayable",
      "type": "function"
    },
    {
      "inputs": [],
      "name": "getWinner",
      "outputs": [
        {
          "internalType": "string",
          "name": "",
          "type": "string"
        }
      ],
      "stateMutability": "view",
      "type": "function",
      "constant": true
    }
  ],
  "bytecode": "0x60806040523480156200001157600080fd5b5062000032620000266200003860201b60201c565b6200004060201b60201c565b62000104565b600033905090565b60008060009054906101000a900473ffffffffffffffffffffffffffffffffffffffff169050816000806101000a81548173ffffffffffffffffffffffffffffffffffffffff021916908373ffffffffffffffffffffffffffffffffffffffff1602179055508173ffffffffffffffffffffffffffffffffffffffff168173ffffffffffffffffffffffffffffffffffffffff167f8be0079c531659141344cd1fd0a4f28419497f9722a3daafe3b4186f6b6457e060405160405180910390a35050565b612dd880620001146000396000f3fe608060405234801561001057600080fd5b50600436106101215760003560e01c8063aa64547c116100ad578063c6b6fad211610071578063c6b6fad2146102aa578063cba1b311146102c8578063ec7fec8b146102d2578063f2fde38b146102f0578063ffa0d2a41461030c57610121565b8063aa64547c1461022e578063af15408714610238578063b20cd9d014610254578063c143bb2d1461025e578063c3c5a5471461027a57610121565b8063715018a6116100f4578063715018a61461019a5780638da5cb5b146101a45780638e7ea5b2146101c25780639ead29c5146101e0578063a39fac121461021057610121565b80630121b93f146101265780632bf08b0b146101425780634e69d5601461014c5780635f9e5cfa1461016a575b600080fd5b610140600480360381019061013b91906121b8565b61033d565b005b61014a6106d6565b005b61015461084e565b6040516101619190612804565b60405180910390f35b610184600480360381019061017f91906121b8565b610865565b6040516101919190612761565b60405180910390f35b6101a26108a4565b005b6101ac61092c565b6040516101b99190612761565b60405180910390f35b6101ca610955565b6040516101d79190612848565b60405180910390f35b6101fa60048036038101906101f5919061214e565b610b0f565b60405161020791906129fa565b60405180910390f35b610218610d4b565b60405161022591906127a5565b60405180910390f35b610236610dd9565b005b610252600480360381019061024d919061214e565b610f51565b005b61025c61121f565b005b61027860048036038101906102739190612177565b611397565b005b610294600480360381019061028f919061214e565b61164f565b6040516102a191906127e9565b60405180910390f35b6102b26116a8565b6040516102bf91906127c7565b60405180910390f35b6102d0611844565b005b6102da611a01565b6040516102e791906129fa565b60405180910390f35b61030a6004803603810190610305919061214e565b611c7c565b005b61032660048036038101906103219190612177565b611d74565b60405161033492919061286a565b60405180910390f35b6003806005811115610378577f4e487b7100000000000000000000000000000000000000000000000000000000600052602160045260246000fd5b600760009054906101000a900460ff1660058111156103c0577f4e487b7100000000000000000000000000000000000000000000000000000000600052602160045260246000fd5b14610400576040517f08c379a00000000000000000000000000000000000000000000000000000000081526004016103f79061297a565b60405180910390fd5b60011515600460003373ffffffffffffffffffffffffffffffffffffffff1673ffffffffffffffffffffffffffffffffffffffff16815260200190815260200160002060000160009054906101000a900460ff16151514610496576040517f08c379a000000000000000000000000000000000000000000000000000000000815260040161048d9061293a565b60405180910390fd5b60001515600460003373ffffffffffffffffffffffffffffffffffffffff1673ffffffffffffffffffffffffffffffffffffffff16815260200190815260200160002060000160019054906101000a900460ff1615151461052c576040517f08c379a0000000000000000000000000000000000000000000000000000000008152600401610523906129ba565b60405180910390fd5b600160025461053b9190612b35565b82111561057d576040517f08c379a00000000000000000000000000000000000000000000000000000000081526004016105749061299a565b60405180910390fd5b6001600460003373ffffffffffffffffffffffffffffffffffffffff1673ffffffffffffffffffffffffffffffffffffffff16815260200190815260200160002060000160016101000a81548160ff02191690831515021790555081600460003373ffffffffffffffffffffffffffffffffffffffff1673ffffffffffffffffffffffffffffffffffffffff1681526020019081526020016000206001018190555060066005838154811061065b577f4e487b7100000000000000000000000000000000000000000000000000000000600052603260045260246000fd5b90600052602060002001604051610672919061274a565b9081526020016040518091039020600101600081548092919061069490612c4a565b91905055507f4d99b957a2bc29a30ebd96a7be8e68fe50a3c701db28a91436490b7d53870ca433836040516106ca92919061277c565b60405180910390a15050565b6106de611e36565b73ffffffffffffffffffffffffffffffffffffffff166106fc61092c565b73ffffffffffffffffffffffffffffffffffffffff1614610752576040517f08c379a00000000000000000000000000000000000000000000000000000000081526004016107499061295a565b60405180910390fd5b600380600581111561078d577f4e487b7100000000000000000000000000000000000000000000000000000000600052602160045260246000fd5b600760009054906101000a900460ff1660058111156107d5577f4e487b7100000000000000000000000000000000000000000000000000000000600052602160045260246000fd5b14610815576040517f08c379a000000000000000000000000000000000000000000000000000000000815260040161080c9061297a565b60405180910390fd5b61081f6004611e3e565b7fc379d349a6301baf50fb2f98d829f4ae10b1cdb7c66f4e4d8117302df7b8cd4c60405160405180910390a150565b6000600760009054906101000a900460ff16905090565b6003818154811061087557600080fd5b906000526020600020016000915054906101000a900473ffffffffffffffffffffffffffffffffffffffff1681565b6108ac611e36565b73ffffffffffffffffffffffffffffffffffffffff166108ca61092c565b73ffffffffffffffffffffffffffffffffffffffff1614610920576040517f08c379a00000000000000000000000000000000000000000000000000000000081526004016109179061295a565b60405180910390fd5b61092a6000611f55565b565b60008060009054906101000a900473ffffffffffffffffffffffffffffffffffffffff16905090565b60606005806005811115610992577f4e487b7100000000000000000000000000000000000000000000000000000000600052602160045260246000fd5b600760009054906101000a900460ff1660058111156109da577f4e487b7100000000000000000000000000000000000000000000000000000000600052602160045260246000fd5b14610a1a576040517f08c379a0000000000000000000000000000000000000000000000000000000008152600401610a119061297a565b60405180910390fd5b6006600560015481548110610a58577f4e487b7100000000000000000000000000000000000000000000000000000000600052603260045260246000fd5b90600052602060002001604051610a6f919061274a565b90815260200160405180910390206000018054610a8b90612c18565b80601f0160208091040260200160405190810160405280929190818152602001828054610ab790612c18565b8015610b045780601f10610ad957610100808354040283529160200191610b04565b820191906000526020600020905b815481529060010190602001808311610ae757829003601f168201915b505050505091505090565b60006003806005811115610b4c577f4e487b7100000000000000000000000000000000000000000000000000000000600052602160045260246000fd5b600760009054906101000a900460ff166005811115610b94577f4e487b7100000000000000000000000000000000000000000000000000000000600052602160045260246000fd5b14610bd4576040517f08c379a0000000000000000000000000000000000000000000000000000000008152600401610bcb9061297a565b60405180910390fd5b60011515600460008573ffffffffffffffffffffffffffffffffffffffff1673ffffffffffffffffffffffffffffffffffffffff16815260200190815260200160002060000160009054906101000a900460ff16151514610c6a576040517f08c379a0000000000000000000000000000000000000000000000000000000008152600401610c61906128ba565b60405180910390fd5b60011515600460008573ffffffffffffffffffffffffffffffffffffffff1673ffffffffffffffffffffffffffffffffffffffff16815260200190815260200160002060000160019054906101000a900460ff16151514610d00576040517f08c379a0000000000000000000000000000000000000000000000000000000008152600401610cf7906129da565b60405180910390fd5b600460008473ffffffffffffffffffffffffffffffffffffffff1673ffffffffffffffffffffffffffffffffffffffff16815260200190815260200160002060010154915050919050565b60606003805480602002602001604051908101604052809291908181526020018280548015610dcf57602002820191906000526020600020905b8160009054906101000a900473ffffffffffffffffffffffffffffffffffffffff1673ffffffffffffffffffffffffffffffffffffffff1681526020019060010190808311610d85575b5050505050905090565b610de1611e36565b73ffffffffffffffffffffffffffffffffffffffff16610dff61092c565b73ffffffffffffffffffffffffffffffffffffffff1614610e55576040517f08c379a0000000000000000000000000000000000000000000000000000000008152600401610e4c9061295a565b60405180910390fd5b6000806005811115610e90577f4e487b7100000000000000000000000000000000000000000000000000000000600052602160045260246000fd5b600760009054906101000a900460ff166005811115610ed8577f4e487b7100000000000000000000000000000000000000000000000000000000600052602160045260246000fd5b14610f18576040517f08c379a0000000000000000000000000000000000000000000000000000000008152600401610f0f9061297a565b60405180910390fd5b610f226001611e3e565b7f344c25562921d075a298d34b6dd1fd00d36ff293974539dfd4a8c625d9f0064c60405160405180910390a150565b610f59611e36565b73ffffffffffffffffffffffffffffffffffffffff16610f7761092c565b73ffffffffffffffffffffffffffffffffffffffff1614610fcd576040517f08c379a0000000000000000000000000000000000000000000000000000000008152600401610fc49061295a565b60405180910390fd5b6000806005811115611008577f4e487b7100000000000000000000000000000000000000000000000000000000600052602160045260246000fd5b600760009054906101000a900460ff166005811115611050577f4e487b7100000000000000000000000000000000000000000000000000000000600052602160045260246000fd5b14611090576040517f08c379a00000000000000000000000000000000000000000000000000000000081526004016110879061297a565b60405180910390fd5b60001515600460008473ffffffffffffffffffffffffffffffffffffffff1673ffffffffffffffffffffffffffffffffffffffff16815260200190815260200160002060000160009054906101000a900460ff16151514611126576040517f08c379a000000000000000000000000000000000000000000000000000000000815260040161111d9061291a565b60405180910390fd5b6001600460008473ffffffffffffffffffffffffffffffffffffffff1673ffffffffffffffffffffffffffffffffffffffff16815260200190815260200160002060000160006101000a81548160ff0219169083151502179055506003829080600181540180825580915050600190039060005260206000200160009091909190916101000a81548173ffffffffffffffffffffffffffffffffffffffff021916908373ffffffffffffffffffffffffffffffffffffffff1602179055507fb6be2187d059cc2a55fe29e0e503b566e1e0f8c8780096e185429350acffd3dd826040516112139190612761565b60405180910390a15050565b611227611e36565b73ffffffffffffffffffffffffffffffffffffffff1661124561092c565b73ffffffffffffffffffffffffffffffffffffffff161461129b576040517f08c379a00000000000000000000000000000000000000000000000000000000081526004016112929061295a565b60405180910390fd5b60028060058111156112d6577f4e487b7100000000000000000000000000000000000000000000000000000000600052602160045260246000fd5b600760009054906101000a900460ff16600581111561131e577f4e487b7100000000000000000000000000000000000000000000000000000000600052602160045260246000fd5b1461135e576040517f08c379a00000000000000000000000000000000000000000000000000000000081526004016113559061297a565b60405180910390fd5b6113686003611e3e565b7f1b8e19a458c1bcd88553332c518cc5c4e2d5793e712ee766d4f1c14f672ef1f560405160405180910390a150565b60018060058111156113d2577f4e487b7100000000000000000000000000000000000000000000000000000000600052602160045260246000fd5b600760009054906101000a900460ff16600581111561141a577f4e487b7100000000000000000000000000000000000000000000000000000000600052602160045260246000fd5b1461145a576040517f08c379a00000000000000000000000000000000000000000000000000000000081526004016114519061297a565b60405180910390fd5b60011515600460003373ffffffffffffffffffffffffffffffffffffffff1673ffffffffffffffffffffffffffffffffffffffff16815260200190815260200160002060000160009054906101000a900460ff161515146114f0576040517f08c379a00000000000000000000000000000000000000000000000000000000081526004016114e79061293a565b60405180910390fd5b60006006836040516115029190612733565b9081526020016040518091039020600001805461151e90612c18565b905014611560576040517f08c379a0000000000000000000000000000000000000000000000000000000008152600401611557906128da565b60405180910390fd5b60058290806001815401808255809150506001900390600052602060002001600090919091909150908051906020019061159b929190612019565b50604051806040016040528083815260200160008152506006836040516115c29190612733565b908152602001604051809103902060008201518160000190805190602001906115ec929190612019565b50602082015181600101559050507f92e393e9b54e2f801d3ea4beb0c5e71a21cc34a5d34b77d0fb8a3aa1650dc18f60025460405161162b91906129fa565b60405180910390a16002600081548092919061164690612c4a565b91905055505050565b6000600460008373ffffffffffffffffffffffffffffffffffffffff1673ffffffffffffffffffffffffffffffffffffffff16815260200190815260200160002060000160009054906101000a900460ff169050919050565b6060600160058111156116e4577f4e487b7100000000000000000000000000000000000000000000000000000000600052602160045260246000fd5b600760009054906101000a900460ff16600581111561172c577f4e487b7100000000000000000000000000000000000000000000000000000000600052602160045260246000fd5b101561176d576040517f08c379a00000000000000000000000000000000000000000000000000000000081526004016117649061297a565b60405180910390fd5b6005805480602002602001604051908101604052809291908181526020016000905b8282101561183b5783829060005260206000200180546117ae90612c18565b80601f01602080910402602001604051908101604052809291908181526020018280546117da90612c18565b80156118275780601f106117fc57610100808354040283529160200191611827565b820191906000526020600020905b81548152906001019060200180831161180a57829003601f168201915b50505050508152602001906001019061178f565b50505050905090565b61184c611e36565b73ffffffffffffffffffffffffffffffffffffffff1661186a61092c565b73ffffffffffffffffffffffffffffffffffffffff16146118c0576040517f08c379a00000000000000000000000000000000000000000000000000000000081526004016118b79061295a565b60405180910390fd5b60018060058111156118fb577f4e487b7100000000000000000000000000000000000000000000000000000000600052602160045260246000fd5b600760009054906101000a900460ff166005811115611943577f4e487b7100000000000000000000000000000000000000000000000000000000600052602160045260246000fd5b14611983576040517f08c379a000000000000000000000000000000000000000000000000000000000815260040161197a9061297a565b60405180910390fd5b6001600254116119c8576040517f08c379a00000000000000000000000000000000000000000000000000000000081526004016119bf906128fa565b60405180910390fd5b6119d26002611e3e565b7f240cb87b2e4df4c318e72bd714d45a9cad60249e883ff56b1fffd83a4595a8fa60405160405180910390a150565b6000611a0b611e36565b73ffffffffffffffffffffffffffffffffffffffff16611a2961092c565b73ffffffffffffffffffffffffffffffffffffffff1614611a7f576040517f08c379a0000000000000000000000000000000000000000000000000000000008152600401611a769061295a565b60405180910390fd5b6004806005811115611aba577f4e487b7100000000000000000000000000000000000000000000000000000000600052602160045260246000fd5b600760009054906101000a900460ff166005811115611b02577f4e487b7100000000000000000000000000000000000000000000000000000000600052602160045260246000fd5b14611b42576040517f08c379a0000000000000000000000000000000000000000000000000000000008152600401611b399061297a565b60405180910390fd5b60005b600254811015611c3c57600660058281548110611b8b577f4e487b7100000000000000000000000000000000000000000000000000000000600052603260045260246000fd5b90600052602060002001604051611ba2919061274a565b9081526020016040518091039020600101546006600560015481548110611bf2577f4e487b7100000000000000000000000000000000000000000000000000000000600052603260045260246000fd5b90600052602060002001604051611c09919061274a565b9081526020016040518091039020600101541015611c2957806001819055505b8080611c3490612c4a565b915050611b45565b50611c476005611e3e565b7f0e5e95ff8725ab3e7a4b6b59998a4c344c2aa8d1485f5e60cb7f337768e6134760405160405180910390a160015491505090565b611c84611e36565b73ffffffffffffffffffffffffffffffffffffffff16611ca261092c565b73ffffffffffffffffffffffffffffffffffffffff1614611cf8576040517f08c379a0000000000000000000000000000000000000000000000000000000008152600401611cef9061295a565b60405180910390fd5b600073ffffffffffffffffffffffffffffffffffffffff168173ffffffffffffffffffffffffffffffffffffffff161415611d68576040517f08c379a0000000000000000000000000000000000000000000000000000000008152600401611d5f9061289a565b60405180910390fd5b611d7181611f55565b50565b600681805160208101820180518482526020830160208501208183528095505050505050600091509050806000018054611dad90612c18565b80601f0160208091040260200160405190810160405280929190818152602001828054611dd990612c18565b8015611e265780601f10611dfb57610100808354040283529160200191611e26565b820191906000526020600020905b815481529060010190602001808311611e0957829003601f168201915b5050505050908060010154905082565b600033905090565b611e46611e36565b73ffffffffffffffffffffffffffffffffffffffff16611e6461092c565b73ffffffffffffffffffffffffffffffffffffffff1614611eba576040517f08c379a0000000000000000000000000000000000000000000000000000000008152600401611eb19061295a565b60405180910390fd5b7f0a97a4ee45751e2abf3e4fc8946939630b11b371ea8ae39ccdc3056e98f5cc3f600760009054906101000a900460ff1682604051611efa92919061281f565b60405180910390a180600760006101000a81548160ff02191690836005811115611f4d577f4e487b7100000000000000000000000000000000000000000000000000000000600052602160045260246000fd5b021790555050565b60008060009054906101000a900473ffffffffffffffffffffffffffffffffffffffff169050816000806101000a81548173ffffffffffffffffffffffffffffffffffffffff021916908373ffffffffffffffffffffffffffffffffffffffff1602179055508173ffffffffffffffffffffffffffffffffffffffff168173ffffffffffffffffffffffffffffffffffffffff167f8be0079c531659141344cd1fd0a4f28419497f9722a3daafe3b4186f6b6457e060405160405180910390a35050565b82805461202590612c18565b90600052602060002090601f016020900481019282612047576000855561208e565b82601f1061206057805160ff191683800117855561208e565b8280016001018555821561208e579182015b8281111561208d578251825591602001919060010190612072565b5b50905061209b919061209f565b5090565b5b808211156120b85760008160009055506001016120a0565b5090565b60006120cf6120ca84612a46565b612a15565b9050828152602081018484840111156120e757600080fd5b6120f2848285612bd6565b509392505050565b60008135905061210981612d74565b92915050565b600082601f83011261212057600080fd5b81356121308482602086016120bc565b91505092915050565b60008135905061214881612d8b565b92915050565b60006020828403121561216057600080fd5b600061216e848285016120fa565b91505092915050565b60006020828403121561218957600080fd5b600082013567ffffffffffffffff8111156121a357600080fd5b6121af8482850161210f565b91505092915050565b6000602082840312156121ca57600080fd5b60006121d884828501612139565b91505092915050565b60006121ed838361220d565b60208301905092915050565b6000612205838361231c565b905092915050565b61221681612b69565b82525050565b61222581612b69565b82525050565b600061223682612aab565b6122408185612ae6565b935061224b83612a76565b8060005b8381101561227c57815161226388826121e1565b975061226e83612acc565b92505060018101905061224f565b5085935050505092915050565b600061229482612ab6565b61229e8185612af7565b9350836020820285016122b085612a86565b8060005b858110156122ec57848403895281516122cd85826121f9565b94506122d883612ad9565b925060208a019950506001810190506122b4565b50829750879550505050505092915050565b61230781612b7b565b82525050565b61231681612bc4565b82525050565b600061232782612ac1565b6123318185612b08565b9350612341818560208601612be5565b61234a81612d4f565b840191505092915050565b600061236082612ac1565b61236a8185612b19565b935061237a818560208601612be5565b61238381612d4f565b840191505092915050565b600061239982612ac1565b6123a38185612b2a565b93506123b3818560208601612be5565b80840191505092915050565b600081546123cc81612c18565b6123d68186612b2a565b945060018216600081146123f1576001811461240257612435565b60ff19831686528186019350612435565b61240b85612a96565b60005b8381101561242d5781548189015260018201915060208101905061240e565b838801955050505b50505092915050565b600061244b602683612b19565b91507f4f776e61626c653a206e6577206f776e657220697320746865207a65726f206160008301527f64647265737300000000000000000000000000000000000000000000000000006020830152604082019050919050565b60006124b1600e83612b19565b91507f4e6f7420526567697374657265640000000000000000000000000000000000006000830152602082019050919050565b60006124f1601b83612b19565b91507f50726f706f73616c20416c7265616479205265676973746572656400000000006000830152602082019050919050565b6000612531601683612b19565b91507f5765206e656564206d6f72652070726f706f73616c73000000000000000000006000830152602082019050919050565b6000612571601283612b19565b91507f416c7265616479205265676973746572656400000000000000000000000000006000830152602082019050919050565b60006125b1601483612b19565b91507f566f746572206e6f7420526567697374657265640000000000000000000000006000830152602082019050919050565b60006125f1602083612b19565b91507f4f776e61626c653a2063616c6c6572206973206e6f7420746865206f776e65726000830152602082019050919050565b6000612631600c83612b19565b91507f496e76616c6964205374657000000000000000000000000000000000000000006000830152602082019050919050565b6000612671601083612b19565b91507f496e76616c69642070726f706f73616c000000000000000000000000000000006000830152602082019050919050565b60006126b1601283612b19565b91507f566f746520616c72656164792074616b656e00000000000000000000000000006000830152602082019050919050565b60006126f1600c83612b19565b91507f446964204e6f7420566f746500000000000000000000000000000000000000006000830152602082019050919050565b61272d81612bba565b82525050565b600061273f828461238e565b915081905092915050565b600061275682846123bf565b915081905092915050565b6000602082019050612776600083018461221c565b92915050565b6000604082019050612791600083018561221c565b61279e6020830184612724565b9392505050565b600060208201905081810360008301526127bf818461222b565b905092915050565b600060208201905081810360008301526127e18184612289565b905092915050565b60006020820190506127fe60008301846122fe565b92915050565b6000602082019050612819600083018461230d565b92915050565b6000604082019050612834600083018561230d565b612841602083018461230d565b9392505050565b600060208201905081810360008301526128628184612355565b905092915050565b600060408201905081810360008301526128848185612355565b90506128936020830184612724565b9392505050565b600060208201905081810360008301526128b38161243e565b9050919050565b600060208201905081810360008301526128d3816124a4565b9050919050565b600060208201905081810360008301526128f3816124e4565b9050919050565b6000602082019050818103600083015261291381612524565b9050919050565b6000602082019050818103600083015261293381612564565b9050919050565b60006020820190508181036000830152612953816125a4565b9050919050565b60006020820190508181036000830152612973816125e4565b9050919050565b6000602082019050818103600083015261299381612624565b9050919050565b600060208201905081810360008301526129b381612664565b9050919050565b600060208201905081810360008301526129d3816126a4565b9050919050565b600060208201905081810360008301526129f3816126e4565b9050919050565b6000602082019050612a0f6000830184612724565b92915050565b6000604051905081810181811067ffffffffffffffff82111715612a3c57612a3b612d20565b5b8060405250919050565b600067ffffffffffffffff821115612a6157612a60612d20565b5b601f19601f8301169050602081019050919050565b6000819050602082019050919050565b6000819050602082019050919050565b60008190508160005260206000209050919050565b600081519050919050565b600081519050919050565b600081519050919050565b6000602082019050919050565b6000602082019050919050565b600082825260208201905092915050565b600082825260208201905092915050565b600082825260208201905092915050565b600082825260208201905092915050565b600081905092915050565b6000612b4082612bba565b9150612b4b83612bba565b925082821015612b5e57612b5d612c93565b5b828203905092915050565b6000612b7482612b9a565b9050919050565b60008115159050919050565b6000819050612b9582612d60565b919050565b600073ffffffffffffffffffffffffffffffffffffffff82169050919050565b6000819050919050565b6000612bcf82612b87565b9050919050565b82818337600083830152505050565b60005b83811015612c03578082015181840152602081019050612be8565b83811115612c12576000848401525b50505050565b60006002820490506001821680612c3057607f821691505b60208210811415612c4457612c43612cf1565b5b50919050565b6000612c5582612bba565b91507fffffffffffffffffffffffffffffffffffffffffffffffffffffffffffffffff821415612c8857612c87612c93565b5b600182019050919050565b7f4e487b7100000000000000000000000000000000000000000000000000000000600052601160045260246000fd5b7f4e487b7100000000000000000000000000000000000000000000000000000000600052602160045260246000fd5b7f4e487b7100000000000000000000000000000000000000000000000000000000600052602260045260246000fd5b7f4e487b7100000000000000000000000000000000000000000000000000000000600052604160045260246000fd5b6000601f19601f8301169050919050565b60068110612d7157612d70612cc2565b5b50565b612d7d81612b69565b8114612d8857600080fd5b50565b612d9481612bba565b8114612d9f57600080fd5b5056fea26469706673582212206906054c43d71feba6c617f2531fe526f08f0a7bc1267fe270354059f97e000b64736f6c63430008000033",
  "immutableReferences": {},
  "source": "// SPDX-License-Identifier: GPL-3.0\npragma solidity 0.8.0;\n\nimport \"./Ownable.sol\";\n\ncontract Voting is Ownable {\n    struct Voter {\n        bool isRegistered;\n        bool hasVoted;\n        uint votedProposalId;\n    }\n\n    struct Proposal {\n        string description;\n        uint voteCount;\n    }\n    \n    enum WorkflowStatus {\n        RegisteringVoters,\n        ProposalsRegistrationStarted,\n        ProposalsRegistrationEnded,\n        VotingSessionStarted,\n        VotingSessionEnded,\n        VotesTallied\n    }\n    \n    event VoterRegistered(address voterAddress);\n    event ProposalsRegistrationStarted();\n    event ProposalsRegistrationEnded();\n    event ProposalRegistered(uint proposalId);\n    event VotingSessionStarted();\n    event VotingSessionEnded();\n    event Voted(address voter, uint proposalId);\n    event VotesTallied();\n    event WorkflowStatusChange(WorkflowStatus previousStatus, WorkflowStatus newStatus);\n    \n    uint private winningProposalId;\n    uint numberProposals;\n    address[] public listAddress;\n    mapping(address => Voter) voters;\n    string[] proposalsIndex;\n    mapping(string => Proposal) public proposals;\n    WorkflowStatus private status;\n    \n    modifier checkStatus(WorkflowStatus _status) {\n        require(status == _status, \"Invalid Step\");\n        _;\n    }\n    \n    function uint2str(uint _i) internal pure returns (string memory _uintAsString) {\n        if (_i == 0) {\n            return \"0\";\n        }\n        uint j = _i;\n        uint len;\n        while (j != 0) {\n            len++;\n            j /= 10;\n        }\n        bytes memory bstr = new bytes(len);\n        uint k = len;\n        while (_i != 0) {\n            k = k-1;\n            uint8 temp = (48 + uint8(_i - _i / 10 * 10));\n            bytes1 b1 = bytes1(temp);\n            bstr[k] = b1;\n            _i /= 10;\n        }\n        return string(bstr);\n    }\n    \n    function getStatus() public view returns(WorkflowStatus) {\n        return status;\n    }\n\n    function getAddresses() public view returns(address[] memory) {\n        return listAddress;\n    }\n    \n    function changeStatus(WorkflowStatus _status) internal onlyOwner {\n        emit WorkflowStatusChange(status, _status);\n        status = _status;\n    }\n    \n    function voterRegister(address _voter) public onlyOwner checkStatus(WorkflowStatus.RegisteringVoters) {\n        require(voters[_voter].isRegistered == false, \"Already Registered\");\n        voters[_voter].isRegistered = true;\n        listAddress.push(_voter);\n        emit VoterRegistered(_voter);\n    }\n\n    function isRegistered(address _address) public view returns (bool) {\n        return voters[_address].isRegistered;\n    }\n    \n    function proposalsRegistrationStart() public onlyOwner checkStatus(WorkflowStatus.RegisteringVoters) {\n        changeStatus(WorkflowStatus.ProposalsRegistrationStarted);\n        emit ProposalsRegistrationStarted();\n    }\n    \n    function proposalRegister(string memory _description) public checkStatus(WorkflowStatus.ProposalsRegistrationStarted) {\n        require(voters[msg.sender].isRegistered == true, \"Voter not Registered\");\n        require(bytes(proposals[_description].description).length == 0, \"Proposal Already Registered\");\n        //proposals.push(Proposal(_description, 0));\n        proposalsIndex.push(_description);\n        proposals[_description] = Proposal(_description, 0);\n        emit ProposalRegistered(numberProposals);\n        numberProposals++;\n    }\n    \n    function proposalsRegistrationEnd() public onlyOwner checkStatus(WorkflowStatus.ProposalsRegistrationStarted) {\n        require(numberProposals > 1, \"We need more proposals\");\n        changeStatus(WorkflowStatus.ProposalsRegistrationEnded);\n        emit ProposalsRegistrationEnded();\n    }\n    \n    function getAllDescription() public view returns(string[] memory) {\n        require(status >= WorkflowStatus.ProposalsRegistrationStarted, \"Invalid Step\");\n        return proposalsIndex;\n    }\n    \n    function votingSessionStart() public onlyOwner checkStatus(WorkflowStatus.ProposalsRegistrationEnded) {\n        changeStatus(WorkflowStatus.VotingSessionStarted);\n        emit VotingSessionStarted();\n    }\n    \n    function vote(uint _proposalId) public checkStatus(WorkflowStatus.VotingSessionStarted) {\n        require(voters[msg.sender].isRegistered == true, \"Voter not Registered\");\n        require(voters[msg.sender].hasVoted == false, \"Vote already taken\");\n        require(_proposalId <= numberProposals - 1, \"Invalid proposal\");\n        voters[msg.sender].hasVoted = true;\n        voters[msg.sender].votedProposalId = _proposalId;\n        proposals[proposalsIndex[_proposalId]].voteCount++;\n        emit Voted(msg.sender, _proposalId);\n    }\n\n    function whoDidYouVoteFor(address _address) public view checkStatus(WorkflowStatus.VotingSessionStarted) returns(uint) {\n        require(voters[_address].isRegistered == true, \"Not Registered\");\n        require(voters[_address].hasVoted == true, \"Did Not Vote\");\n        return voters[_address].votedProposalId;\n    }\n    \n    function votingSessionEnd() public onlyOwner checkStatus(WorkflowStatus.VotingSessionStarted) {\n        changeStatus(WorkflowStatus.VotingSessionEnded);\n        emit VotingSessionEnded();\n    }\n    \n    /*\n    *   @notice: Counts all the votes and defines the winning proposal\n    *   @return The winning ID proposal\n    */\n    function defineWinner() public onlyOwner checkStatus(WorkflowStatus.VotingSessionEnded) returns(uint) {\n        for (uint i = 0; i < numberProposals; i++) {\n            if ( proposals[proposalsIndex[winningProposalId]].voteCount < proposals[proposalsIndex[i]].voteCount)\n                winningProposalId = i;\n        }\n        changeStatus(WorkflowStatus.VotesTallied);\n        emit VotesTallied();\n        return winningProposalId;\n    }\n\n    function getWinner() public view checkStatus(WorkflowStatus.VotesTallied) returns(string memory) {\n        return string(proposals[proposalsIndex[winningProposalId]].description);\n    }\n}",
  "sourcePath": "/home/keymon/work/dApp/voting/contracts/Voting.sol",
  "compiler": {
    "name": "solc",
    "version": "0.8.0+commit.c7dfd78e.Emscripten.clang"
  },
  "schemaVersion": "3.4.1",
  "updatedAt": "2021-07-02T21:27:24.060Z",
  "networkType": "ethereum",
  "devdoc": {
    "kind": "dev",
    "methods": {
      "owner()": {
        "details": "Returns the address of the current owner."
      },
      "renounceOwnership()": {
        "details": "Leaves the contract without owner. It will not be possible to call `onlyOwner` functions anymore. Can only be called by the current owner. NOTE: Renouncing ownership will leave the contract without an owner, thereby removing any functionality that is only available to the owner."
      },
      "transferOwnership(address)": {
        "details": "Transfers ownership of the contract to a new account (`newOwner`). Can only be called by the current owner."
      }
    },
    "version": 1
  },
  "userdoc": {
    "kind": "user",
    "methods": {},
    "version": 1
  }
}